{
  "contractName": "Person",
  "abi": [
    {
      "constant": true,
      "inputs": [
        {
          "name": "",
          "type": "uint256"
        }
      ],
      "name": "doctorsAccess",
      "outputs": [
        {
          "name": "",
          "type": "address"
        }
      ],
      "payable": false,
      "stateMutability": "view",
      "type": "function"
    },
    {
      "inputs": [
        {
          "name": "_firstName",
          "type": "string"
        },
        {
          "name": "_lastName",
          "type": "string"
        },
        {
          "name": "_SID",
          "type": "string"
        },
        {
          "name": "_year",
          "type": "string"
        },
        {
          "name": "_month",
          "type": "string"
        },
        {
          "name": "_day",
          "type": "string"
        },
        {
          "name": "_email",
          "type": "string"
        },
        {
          "name": "_telephone",
          "type": "string"
        },
        {
          "name": "_personAddress",
          "type": "string"
        },
        {
          "name": "_zip",
          "type": "string"
        },
        {
          "name": "_city",
          "type": "string"
        }
      ],
      "payable": false,
      "stateMutability": "nonpayable",
      "type": "constructor"
    },
    {
      "constant": true,
      "inputs": [],
      "name": "getAccess",
      "outputs": [
        {
          "name": "access",
          "type": "bool"
        }
      ],
      "payable": false,
      "stateMutability": "view",
      "type": "function"
    },
    {
      "constant": true,
      "inputs": [],
      "name": "getAccessDoctor",
      "outputs": [
        {
          "name": "access",
          "type": "bool"
        }
      ],
      "payable": false,
      "stateMutability": "view",
      "type": "function"
    },
    {
      "constant": false,
      "inputs": [
        {
          "name": "_mData",
          "type": "string"
        }
      ],
      "name": "addMedicalData",
      "outputs": [],
      "payable": false,
      "stateMutability": "nonpayable",
      "type": "function"
    },
    {
      "constant": false,
      "inputs": [
        {
          "name": "_doctorsAddress",
          "type": "address"
        }
      ],
      "name": "addDoctor",
      "outputs": [],
      "payable": false,
      "stateMutability": "nonpayable",
      "type": "function"
    },
    {
      "constant": false,
      "inputs": [
        {
          "name": "_doctorsAddress",
          "type": "address"
        }
      ],
      "name": "removeDoctor",
      "outputs": [
        {
          "name": "succesful",
          "type": "bool"
        }
      ],
      "payable": false,
      "stateMutability": "nonpayable",
      "type": "function"
    },
    {
      "constant": true,
      "inputs": [],
      "name": "getFirstName",
      "outputs": [
        {
          "name": "_firstName",
          "type": "string"
        }
      ],
      "payable": false,
      "stateMutability": "view",
      "type": "function"
    },
    {
      "constant": true,
      "inputs": [],
      "name": "getLastName",
      "outputs": [
        {
          "name": "_lastName",
          "type": "string"
        }
      ],
      "payable": false,
      "stateMutability": "view",
      "type": "function"
    },
    {
      "constant": true,
      "inputs": [],
      "name": "getSID",
      "outputs": [
        {
          "name": "_SID",
          "type": "string"
        }
      ],
      "payable": false,
      "stateMutability": "view",
      "type": "function"
    },
    {
      "constant": true,
      "inputs": [],
      "name": "getYear",
      "outputs": [
        {
          "name": "_year",
          "type": "string"
        }
      ],
      "payable": false,
      "stateMutability": "view",
      "type": "function"
    },
    {
      "constant": true,
      "inputs": [],
      "name": "getMonth",
      "outputs": [
        {
          "name": "_month",
          "type": "string"
        }
      ],
      "payable": false,
      "stateMutability": "view",
      "type": "function"
    },
    {
      "constant": true,
      "inputs": [],
      "name": "getDay",
      "outputs": [
        {
          "name": "_day",
          "type": "string"
        }
      ],
      "payable": false,
      "stateMutability": "view",
      "type": "function"
    },
    {
      "constant": true,
      "inputs": [],
      "name": "getEmail",
      "outputs": [
        {
          "name": "_email",
          "type": "string"
        }
      ],
      "payable": false,
      "stateMutability": "view",
      "type": "function"
    },
    {
      "constant": true,
      "inputs": [],
      "name": "getTelephone",
      "outputs": [
        {
          "name": "_telephone",
          "type": "string"
        }
      ],
      "payable": false,
      "stateMutability": "view",
      "type": "function"
    },
    {
      "constant": true,
      "inputs": [],
      "name": "getPersonAddress",
      "outputs": [
        {
          "name": "_personAddress",
          "type": "string"
        }
      ],
      "payable": false,
      "stateMutability": "view",
      "type": "function"
    },
    {
      "constant": true,
      "inputs": [],
      "name": "getZip",
      "outputs": [
        {
          "name": "_zip",
          "type": "string"
        }
      ],
      "payable": false,
      "stateMutability": "view",
      "type": "function"
    },
    {
      "constant": true,
      "inputs": [],
      "name": "getCity",
      "outputs": [
        {
          "name": "_city",
          "type": "string"
        }
      ],
      "payable": false,
      "stateMutability": "view",
      "type": "function"
    },
    {
      "constant": true,
      "inputs": [],
      "name": "getDoctorsSize",
      "outputs": [
        {
          "name": "_doctorsSize",
          "type": "uint256"
        }
      ],
      "payable": false,
      "stateMutability": "view",
      "type": "function"
    },
    {
      "constant": true,
      "inputs": [],
      "name": "getMedicalDataSize",
      "outputs": [
        {
          "name": "_medicalDataSize",
          "type": "uint256"
        }
      ],
      "payable": false,
      "stateMutability": "view",
      "type": "function"
    },
    {
      "constant": true,
      "inputs": [
        {
          "name": "idx",
          "type": "uint256"
        }
      ],
      "name": "getMedicalDataIndex",
      "outputs": [
        {
          "name": "_medData",
          "type": "string"
        }
      ],
      "payable": false,
      "stateMutability": "view",
      "type": "function"
    },
    {
      "constant": false,
      "inputs": [
        {
          "name": "_email",
          "type": "string"
        }
      ],
      "name": "setEmail",
      "outputs": [],
      "payable": false,
      "stateMutability": "nonpayable",
      "type": "function"
    },
    {
      "constant": false,
      "inputs": [
        {
          "name": "_telephone",
          "type": "string"
        }
      ],
      "name": "setTelephone",
      "outputs": [],
      "payable": false,
      "stateMutability": "nonpayable",
      "type": "function"
    },
    {
      "constant": false,
      "inputs": [
        {
          "name": "_personAddress",
          "type": "string"
        }
      ],
      "name": "setAddress",
      "outputs": [],
      "payable": false,
      "stateMutability": "nonpayable",
      "type": "function"
    },
    {
      "constant": false,
      "inputs": [
        {
          "name": "_city",
          "type": "string"
        }
      ],
      "name": "setCity",
      "outputs": [],
      "payable": false,
      "stateMutability": "nonpayable",
      "type": "function"
    },
    {
      "constant": false,
      "inputs": [
        {
          "name": "_zip",
          "type": "string"
        }
      ],
      "name": "setZip",
      "outputs": [],
      "payable": false,
      "stateMutability": "nonpayable",
      "type": "function"
    }
  ],
  "bytecode": "0x60806040523480156200001157600080fd5b50604051620031d0380380620031d083398101806040526101608110156200003857600080fd5b8101908080516401000000008111156200005157600080fd5b828101905060208101848111156200006857600080fd5b81518560018202830111640100000000821117156200008657600080fd5b50509291906020018051640100000000811115620000a357600080fd5b82810190506020810184811115620000ba57600080fd5b8151856001820283011164010000000082111715620000d857600080fd5b50509291906020018051640100000000811115620000f557600080fd5b828101905060208101848111156200010c57600080fd5b81518560018202830111640100000000821117156200012a57600080fd5b505092919060200180516401000000008111156200014757600080fd5b828101905060208101848111156200015e57600080fd5b81518560018202830111640100000000821117156200017c57600080fd5b505092919060200180516401000000008111156200019957600080fd5b82810190506020810184811115620001b057600080fd5b8151856001820283011164010000000082111715620001ce57600080fd5b50509291906020018051640100000000811115620001eb57600080fd5b828101905060208101848111156200020257600080fd5b81518560018202830111640100000000821117156200022057600080fd5b505092919060200180516401000000008111156200023d57600080fd5b828101905060208101848111156200025457600080fd5b81518560018202830111640100000000821117156200027257600080fd5b505092919060200180516401000000008111156200028f57600080fd5b82810190506020810184811115620002a657600080fd5b8151856001820283011164010000000082111715620002c457600080fd5b50509291906020018051640100000000811115620002e157600080fd5b82810190506020810184811115620002f857600080fd5b81518560018202830111640100000000821117156200031657600080fd5b505092919060200180516401000000008111156200033357600080fd5b828101905060208101848111156200034a57600080fd5b81518560018202830111640100000000821117156200036857600080fd5b505092919060200180516401000000008111156200038557600080fd5b828101905060208101848111156200039c57600080fd5b8151856001820283011164010000000082111715620003ba57600080fd5b5050929190505050336000806101000a81548173ffffffffffffffffffffffffffffffffffffffff021916908373ffffffffffffffffffffffffffffffffffffffff1602179055508a600290805190602001906200041a92919062000526565b5089600390805190602001906200043392919062000526565b5088600490805190602001906200044c92919062000526565b5087600590805190602001906200046592919062000526565b5086600690805190602001906200047e92919062000526565b5085600790805190602001906200049792919062000526565b508460089080519060200190620004b092919062000526565b508360099080519060200190620004c992919062000526565b5082600a9080519060200190620004e292919062000526565b5081600b9080519060200190620004fb92919062000526565b5080600c90805190602001906200051492919062000526565b505050505050505050505050620005d5565b828054600181600116156101000203166002900490600052602060002090601f016020900481019282601f106200056957805160ff19168380011785556200059a565b828001600101855582156200059a579182015b82811115620005995782518255916020019190600101906200057c565b5b509050620005a99190620005ad565b5090565b620005d291905b80821115620005ce576000816000905550600101620005b4565b5090565b90565b612beb80620005e56000396000f3fe608060405260043610610149576000357c0100000000000000000000000000000000000000000000000000000000900463ffffffff1680630379915d1461014e5780630599c284146101de57806311450fe1146102a657806314ba5c091461033657806316ceb30b146103c65780631d8f78921461047a578063282b065a1461050a5780632c791c7c146105d25780634780468f146106625780635d65875f146106b35780635dc88b2c1461074357806362a9564c146107725780636337fdf91461079d5780636b1092821461082d57806375ee3e7c146108bd5780637e79e8ba14610985578063932997f114610a1557806398fc90e914610aa5578063ab1f232914610b0e578063b2c85a1e14610b39578063e1af049114610c01578063ec1ef2a414610cc9578063f07513eb14610d44578063f7ca843114610e0c578063fd08921b14610e3b575b600080fd5b34801561015a57600080fd5b50610163610ecb565b6040518080602001828103825283818151815260200191508051906020019080838360005b838110156101a3578082015181840152602081019050610188565b50505050905090810190601f1680156101d05780820380516001836020036101000a031916815260200191505b509250505060405180910390f35b3480156101ea57600080fd5b506102a46004803603602081101561020157600080fd5b810190808035906020019064010000000081111561021e57600080fd5b82018360208201111561023057600080fd5b8035906020019184600183028401116401000000008311171561025257600080fd5b91908080601f016020809104026020016040519081016040528093929190818152602001838380828437600081840152601f19601f820116905080830192505050505050509192919290505050611016565b005b3480156102b257600080fd5b506102bb6110f4565b6040518080602001828103825283818151815260200191508051906020019080838360005b838110156102fb5780820151818401526020810190506102e0565b50505050905090810190601f1680156103285780820380516001836020036101000a031916815260200191505b509250505060405180910390f35b34801561034257600080fd5b5061034b61123f565b6040518080602001828103825283818151815260200191508051906020019080838360005b8381101561038b578082015181840152602081019050610370565b50505050905090810190601f1680156103b85780820380516001836020036101000a031916815260200191505b509250505060405180910390f35b3480156103d257600080fd5b506103ff600480360360208110156103e957600080fd5b810190808035906020019092919050505061138a565b6040518080602001828103825283818151815260200191508051906020019080838360005b8381101561043f578082015181840152602081019050610424565b50505050905090810190601f16801561046c5780820380516001836020036101000a031916815260200191505b509250505060405180910390f35b34801561048657600080fd5b5061048f6114ee565b6040518080602001828103825283818151815260200191508051906020019080838360005b838110156104cf5780820151818401526020810190506104b4565b50505050905090810190601f1680156104fc5780820380516001836020036101000a031916815260200191505b509250505060405180910390f35b34801561051657600080fd5b506105d06004803603602081101561052d57600080fd5b810190808035906020019064010000000081111561054a57600080fd5b82018360208201111561055c57600080fd5b8035906020019184600183028401116401000000008311171561057e57600080fd5b91908080601f016020809104026020016040519081016040528093929190818152602001838380828437600081840152601f19601f820116905080830192505050505050509192919290505050611639565b005b3480156105de57600080fd5b506105e7611717565b6040518080602001828103825283818151815260200191508051906020019080838360005b8381101561062757808201518184015260208101905061060c565b50505050905090810190601f1680156106545780820380516001836020036101000a031916815260200191505b509250505060405180910390f35b34801561066e57600080fd5b506106b16004803603602081101561068557600080fd5b81019080803573ffffffffffffffffffffffffffffffffffffffff169060200190929190505050611862565b005b3480156106bf57600080fd5b506106c861198f565b6040518080602001828103825283818151815260200191508051906020019080838360005b838110156107085780820151818401526020810190506106ed565b50505050905090810190601f1680156107355780820380516001836020036101000a031916815260200191505b509250505060405180910390f35b34801561074f57600080fd5b50610758611ada565b604051808215151515815260200191505060405180910390f35b34801561077e57600080fd5b50610787611b7c565b6040518082815260200191505060405180910390f35b3480156107a957600080fd5b506107b2611c32565b6040518080602001828103825283818151815260200191508051906020019080838360005b838110156107f25780820151818401526020810190506107d7565b50505050905090810190601f16801561081f5780820380516001836020036101000a031916815260200191505b509250505060405180910390f35b34801561083957600080fd5b50610842611d7d565b6040518080602001828103825283818151815260200191508051906020019080838360005b83811015610882578082015181840152602081019050610867565b50505050905090810190601f1680156108af5780820380516001836020036101000a031916815260200191505b509250505060405180910390f35b3480156108c957600080fd5b50610983600480360360208110156108e057600080fd5b81019080803590602001906401000000008111156108fd57600080fd5b82018360208201111561090f57600080fd5b8035906020019184600183028401116401000000008311171561093157600080fd5b91908080601f016020809104026020016040519081016040528093929190818152602001838380828437600081840152601f19601f820116905080830192505050505050509192919290505050611ec8565b005b34801561099157600080fd5b5061099a611fb3565b6040518080602001828103825283818151815260200191508051906020019080838360005b838110156109da5780820151818401526020810190506109bf565b50505050905090810190601f168015610a075780820380516001836020036101000a031916815260200191505b509250505060405180910390f35b348015610a2157600080fd5b50610a2a6120fe565b6040518080602001828103825283818151815260200191508051906020019080838360005b83811015610a6a578082015181840152602081019050610a4f565b50505050905090810190601f168015610a975780820380516001836020036101000a031916815260200191505b509250505060405180910390f35b348015610ab157600080fd5b50610af460048036036020811015610ac857600080fd5b81019080803573ffffffffffffffffffffffffffffffffffffffff169060200190929190505050612249565b604051808215151515815260200191505060405180910390f35b348015610b1a57600080fd5b50610b23612525565b6040518082815260200191505060405180910390f35b348015610b4557600080fd5b50610bff60048036036020811015610b5c57600080fd5b8101908080359060200190640100000000811115610b7957600080fd5b820183602082011115610b8b57600080fd5b80359060200191846001830284011164010000000083111715610bad57600080fd5b91908080601f016020809104026020016040519081016040528093929190818152602001838380828437600081840152601f19601f8201169050808301925050505050505091929192905050506125db565b005b348015610c0d57600080fd5b50610cc760048036036020811015610c2457600080fd5b8101908080359060200190640100000000811115610c4157600080fd5b820183602082011115610c5357600080fd5b80359060200191846001830284011164010000000083111715610c7557600080fd5b91908080601f016020809104026020016040519081016040528093929190818152602001838380828437600081840152601f19601f8201169050808301925050505050505091929192905050506126b9565b005b348015610cd557600080fd5b50610d0260048036036020811015610cec57600080fd5b8101908080359060200190929190505050612797565b604051808273ffffffffffffffffffffffffffffffffffffffff1673ffffffffffffffffffffffffffffffffffffffff16815260200191505060405180910390f35b348015610d5057600080fd5b50610e0a60048036036020811015610d6757600080fd5b8101908080359060200190640100000000811115610d8457600080fd5b820183602082011115610d9657600080fd5b80359060200191846001830284011164010000000083111715610db857600080fd5b91908080601f016020809104026020016040519081016040528093929190818152602001838380828437600081840152601f19601f8201169050808301925050505050505091929192905050506127d5565b005b348015610e1857600080fd5b50610e216128b3565b604051808215151515815260200191505060405180910390f35b348015610e4757600080fd5b50610e506129a3565b6040518080602001828103825283818151815260200191508051906020019080838360005b83811015610e90578082015181840152602081019050610e75565b50505050905090810190601f168015610ebd5780820380516001836020036101000a031916815260200191505b509250505060405180910390f35b606060011515610ed96128b3565b1515141515610f76576040517f08c379a00000000000000000000000000000000000000000000000000000000081526004018080602001828103825260238152602001807f596f7520646f6e277420686176652061636365737320746f207468697320666981526020017f656c64000000000000000000000000000000000000000000000000000000000081525060400191505060405180910390fd5b600c8054600181600116156101000203166002900480601f01602080910402602001604051908101604052809291908181526020018280546001816001161561010002031660029004801561100c5780601f10610fe15761010080835404028352916020019161100c565b820191906000526020600020905b815481529060010190602001808311610fef57829003601f168201915b5050505050905090565b6000809054906101000a900473ffffffffffffffffffffffffffffffffffffffff1673ffffffffffffffffffffffffffffffffffffffff163373ffffffffffffffffffffffffffffffffffffffff161415156110da576040517f08c379a00000000000000000000000000000000000000000000000000000000081526004018080602001828103825260208152602001807f4f6e6c79206f776e65722063616e206368616e67652074686973206669656c6481525060200191505060405180910390fd5b80600a90805190602001906110f0929190612aee565b5050565b6060600115156111026128b3565b151514151561119f576040517f08c379a00000000000000000000000000000000000000000000000000000000081526004018080602001828103825260238152602001807f596f7520646f6e277420686176652061636365737320746f207468697320666981526020017f656c64000000000000000000000000000000000000000000000000000000000081525060400191505060405180910390fd5b600b8054600181600116156101000203166002900480601f0160208091040260200160405190810160405280929190818152602001828054600181600116156101000203166002900480156112355780601f1061120a57610100808354040283529160200191611235565b820191906000526020600020905b81548152906001019060200180831161121857829003601f168201915b5050505050905090565b60606001151561124d6128b3565b15151415156112ea576040517f08c379a00000000000000000000000000000000000000000000000000000000081526004018080602001828103825260238152602001807f596f7520646f6e277420686176652061636365737320746f207468697320666981526020017f656c64000000000000000000000000000000000000000000000000000000000081525060400191505060405180910390fd5b60078054600181600116156101000203166002900480601f0160208091040260200160405190810160405280929190818152602001828054600181600116156101000203166002900480156113805780601f1061135557610100808354040283529160200191611380565b820191906000526020600020905b81548152906001019060200180831161136357829003601f168201915b5050505050905090565b6060600115156113986128b3565b1515141515611435576040517f08c379a00000000000000000000000000000000000000000000000000000000081526004018080602001828103825260238152602001807f596f7520646f6e277420686176652061636365737320746f207468697320666981526020017f656c64000000000000000000000000000000000000000000000000000000000081525060400191505060405180910390fd5b600d8281548110151561144457fe5b906000526020600020018054600181600116156101000203166002900480601f0160208091040260200160405190810160405280929190818152602001828054600181600116156101000203166002900480156114e25780601f106114b7576101008083540402835291602001916114e2565b820191906000526020600020905b8154815290600101906020018083116114c557829003601f168201915b50505050509050919050565b6060600115156114fc6128b3565b1515141515611599576040517f08c379a00000000000000000000000000000000000000000000000000000000081526004018080602001828103825260238152602001807f596f7520646f6e277420686176652061636365737320746f207468697320666981526020017f656c64000000000000000000000000000000000000000000000000000000000081525060400191505060405180910390fd5b60068054600181600116156101000203166002900480601f01602080910402602001604051908101604052809291908181526020018280546001816001161561010002031660029004801561162f5780601f106116045761010080835404028352916020019161162f565b820191906000526020600020905b81548152906001019060200180831161161257829003601f168201915b5050505050905090565b6000809054906101000a900473ffffffffffffffffffffffffffffffffffffffff1673ffffffffffffffffffffffffffffffffffffffff163373ffffffffffffffffffffffffffffffffffffffff161415156116fd576040517f08c379a00000000000000000000000000000000000000000000000000000000081526004018080602001828103825260208152602001807f4f6e6c79206f776e65722063616e206368616e67652074686973206669656c6481525060200191505060405180910390fd5b8060089080519060200190611713929190612aee565b5050565b6060600115156117256128b3565b15151415156117c2576040517f08c379a00000000000000000000000000000000000000000000000000000000081526004018080602001828103825260238152602001807f596f7520646f6e277420686176652061636365737320746f207468697320666981526020017f656c64000000000000000000000000000000000000000000000000000000000081525060400191505060405180910390fd5b60098054600181600116156101000203166002900480601f0160208091040260200160405190810160405280929190818152602001828054600181600116156101000203166002900480156118585780601f1061182d57610100808354040283529160200191611858565b820191906000526020600020905b81548152906001019060200180831161183b57829003601f168201915b5050505050905090565b6000809054906101000a900473ffffffffffffffffffffffffffffffffffffffff1673ffffffffffffffffffffffffffffffffffffffff163373ffffffffffffffffffffffffffffffffffffffff16141515611926576040517f08c379a00000000000000000000000000000000000000000000000000000000081526004018080602001828103825260208152602001807f4f6e6c79206f776e65722063616e206368616e67652074686973206669656c6481525060200191505060405180910390fd5b60018190806001815401808255809150509060018203906000526020600020016000909192909190916101000a81548173ffffffffffffffffffffffffffffffffffffffff021916908373ffffffffffffffffffffffffffffffffffffffff1602179055505050565b60606001151561199d6128b3565b1515141515611a3a576040517f08c379a00000000000000000000000000000000000000000000000000000000081526004018080602001828103825260238152602001807f596f7520646f6e277420686176652061636365737320746f207468697320666981526020017f656c64000000000000000000000000000000000000000000000000000000000081525060400191505060405180910390fd5b600a8054600181600116156101000203166002900480601f016020809104026020016040519081016040528092919081815260200182805460018160011615610100020316600290048015611ad05780601f10611aa557610100808354040283529160200191611ad0565b820191906000526020600020905b815481529060010190602001808311611ab357829003601f168201915b5050505050905090565b600080600090505b600180549050811015611b73573373ffffffffffffffffffffffffffffffffffffffff16600182815481101515611b1557fe5b9060005260206000200160009054906101000a900473ffffffffffffffffffffffffffffffffffffffff1673ffffffffffffffffffffffffffffffffffffffff161415611b66576001915050611b79565b8080600101915050611ae2565b50600090505b90565b600060011515611b8a6128b3565b1515141515611c27576040517f08c379a00000000000000000000000000000000000000000000000000000000081526004018080602001828103825260238152602001807f596f7520646f6e277420686176652061636365737320746f207468697320666981526020017f656c64000000000000000000000000000000000000000000000000000000000081525060400191505060405180910390fd5b600180549050905090565b606060011515611c406128b3565b1515141515611cdd576040517f08c379a00000000000000000000000000000000000000000000000000000000081526004018080602001828103825260238152602001807f596f7520646f6e277420686176652061636365737320746f207468697320666981526020017f656c64000000000000000000000000000000000000000000000000000000000081525060400191505060405180910390fd5b60048054600181600116156101000203166002900480601f016020809104026020016040519081016040528092919081815260200182805460018160011615610100020316600290048015611d735780601f10611d4857610100808354040283529160200191611d73565b820191906000526020600020905b815481529060010190602001808311611d5657829003601f168201915b5050505050905090565b606060011515611d8b6128b3565b1515141515611e28576040517f08c379a00000000000000000000000000000000000000000000000000000000081526004018080602001828103825260238152602001807f596f7520646f6e277420686176652061636365737320746f207468697320666981526020017f656c64000000000000000000000000000000000000000000000000000000000081525060400191505060405180910390fd5b60038054600181600116156101000203166002900480601f016020809104026020016040519081016040528092919081815260200182805460018160011615610100020316600290048015611ebe5780601f10611e9357610100808354040283529160200191611ebe565b820191906000526020600020905b815481529060010190602001808311611ea157829003601f168201915b5050505050905090565b60011515611ed4611ada565b1515141515611f71576040517f08c379a00000000000000000000000000000000000000000000000000000000081526004018080602001828103825260248152602001807f596f7520646f6e277420686176652061636365737320746f2074686973206d6581526020017f74686f640000000000000000000000000000000000000000000000000000000081525060400191505060405180910390fd5b600d819080600181540180825580915050906001820390600052602060002001600090919290919091509080519060200190611fae929190612aee565b505050565b606060011515611fc16128b3565b151514151561205e576040517f08c379a00000000000000000000000000000000000000000000000000000000081526004018080602001828103825260238152602001807f596f7520646f6e277420686176652061636365737320746f207468697320666981526020017f656c64000000000000000000000000000000000000000000000000000000000081525060400191505060405180910390fd5b60088054600181600116156101000203166002900480601f0160208091040260200160405190810160405280929190818152602001828054600181600116156101000203166002900480156120f45780601f106120c9576101008083540402835291602001916120f4565b820191906000526020600020905b8154815290600101906020018083116120d757829003601f168201915b5050505050905090565b60606001151561210c6128b3565b15151415156121a9576040517f08c379a00000000000000000000000000000000000000000000000000000000081526004018080602001828103825260238152602001807f596f7520646f6e277420686176652061636365737320746f207468697320666981526020017f656c64000000000000000000000000000000000000000000000000000000000081525060400191505060405180910390fd5b60028054600181600116156101000203166002900480601f01602080910402602001604051908101604052809291908181526020018280546001816001161561010002031660029004801561223f5780601f106122145761010080835404028352916020019161223f565b820191906000526020600020905b81548152906001019060200180831161222257829003601f168201915b5050505050905090565b60008060009054906101000a900473ffffffffffffffffffffffffffffffffffffffff1673ffffffffffffffffffffffffffffffffffffffff163373ffffffffffffffffffffffffffffffffffffffff1614151561230f576040517f08c379a00000000000000000000000000000000000000000000000000000000081526004018080602001828103825260208152602001807f4f6e6c79206f776e65722063616e206368616e67652074686973206669656c6481525060200191505060405180910390fd5b600080905060008090505b6001805490508110156123a55760018181548110151561233657fe5b9060005260206000200160009054906101000a900473ffffffffffffffffffffffffffffffffffffffff1673ffffffffffffffffffffffffffffffffffffffff168473ffffffffffffffffffffffffffffffffffffffff161415612398578091505b808060010191505061231a565b5060008114801561241c57508273ffffffffffffffffffffffffffffffffffffffff16600160008154811015156123d857fe5b9060005260206000200160009054906101000a900473ffffffffffffffffffffffffffffffffffffffff1673ffffffffffffffffffffffffffffffffffffffff1614155b1561242b576000915050612520565b60018080805490500381548110151561244057fe5b9060005260206000200160009054906101000a900473ffffffffffffffffffffffffffffffffffffffff1660018281548110151561247a57fe5b9060005260206000200160006101000a81548173ffffffffffffffffffffffffffffffffffffffff021916908373ffffffffffffffffffffffffffffffffffffffff1602179055506001808080549050038154811015156124d757fe5b9060005260206000200160006101000a81549073ffffffffffffffffffffffffffffffffffffffff021916905560018054809190600190036125199190612b6e565b5060019150505b919050565b6000600115156125336128b3565b15151415156125d0576040517f08c379a00000000000000000000000000000000000000000000000000000000081526004018080602001828103825260238152602001807f596f7520646f6e277420686176652061636365737320746f207468697320666981526020017f656c64000000000000000000000000000000000000000000000000000000000081525060400191505060405180910390fd5b600d80549050905090565b6000809054906101000a900473ffffffffffffffffffffffffffffffffffffffff1673ffffffffffffffffffffffffffffffffffffffff163373ffffffffffffffffffffffffffffffffffffffff1614151561269f576040517f08c379a00000000000000000000000000000000000000000000000000000000081526004018080602001828103825260208152602001807f4f6e6c79206f776e65722063616e206368616e67652074686973206669656c6481525060200191505060405180910390fd5b80600990805190602001906126b5929190612aee565b5050565b6000809054906101000a900473ffffffffffffffffffffffffffffffffffffffff1673ffffffffffffffffffffffffffffffffffffffff163373ffffffffffffffffffffffffffffffffffffffff1614151561277d576040517f08c379a00000000000000000000000000000000000000000000000000000000081526004018080602001828103825260208152602001807f4f6e6c79206f776e65722063616e206368616e67652074686973206669656c6481525060200191505060405180910390fd5b80600b9080519060200190612793929190612aee565b5050565b6001818154811015156127a657fe5b906000526020600020016000915054906101000a900473ffffffffffffffffffffffffffffffffffffffff1681565b6000809054906101000a900473ffffffffffffffffffffffffffffffffffffffff1673ffffffffffffffffffffffffffffffffffffffff163373ffffffffffffffffffffffffffffffffffffffff16141515612899576040517f08c379a00000000000000000000000000000000000000000000000000000000081526004018080602001828103825260208152602001807f4f6e6c79206f776e65722063616e206368616e67652074686973206669656c6481525060200191505060405180910390fd5b80600c90805190602001906128af929190612aee565b5050565b600080600090505b60018054905081101561294c573373ffffffffffffffffffffffffffffffffffffffff166001828154811015156128ee57fe5b9060005260206000200160009054906101000a900473ffffffffffffffffffffffffffffffffffffffff1673ffffffffffffffffffffffffffffffffffffffff16141561293f5760019150506129a0565b80806001019150506128bb565b506000809054906101000a900473ffffffffffffffffffffffffffffffffffffffff1673ffffffffffffffffffffffffffffffffffffffff163373ffffffffffffffffffffffffffffffffffffffff161490505b90565b6060600115156129b16128b3565b1515141515612a4e576040517f08c379a00000000000000000000000000000000000000000000000000000000081526004018080602001828103825260238152602001807f596f7520646f6e277420686176652061636365737320746f207468697320666981526020017f656c64000000000000000000000000000000000000000000000000000000000081525060400191505060405180910390fd5b60058054600181600116156101000203166002900480601f016020809104026020016040519081016040528092919081815260200182805460018160011615610100020316600290048015612ae45780601f10612ab957610100808354040283529160200191612ae4565b820191906000526020600020905b815481529060010190602001808311612ac757829003601f168201915b5050505050905090565b828054600181600116156101000203166002900490600052602060002090601f016020900481019282601f10612b2f57805160ff1916838001178555612b5d565b82800160010185558215612b5d579182015b82811115612b5c578251825591602001919060010190612b41565b5b509050612b6a9190612b9a565b5090565b815481835581811115612b9557818360005260206000209182019101612b949190612b9a565b5b505050565b612bbc91905b80821115612bb8576000816000905550600101612ba0565b5090565b9056fea165627a7a723058209a1e63e56207d9b9aadf6ba93e4b22af7f63f95ca357c159fcd60b381527963c0029",
  "source": "pragma solidity >=0.4.22 <0.6.0;\r\ncontract Person {\r\n    \r\n    //owner address\r\n    address private owner;\r\n    \r\n    //doctors list who can access my data\r\n    address[] public doctorsAccess;\r\n\r\n    //identity\r\n    string private firstName;\r\n    string private lastName;\r\n    string private SID; \r\n    \r\n    //birthday\r\n    string private year;\r\n    string private month;\r\n    string private day;\r\n    \r\n    //contract\r\n    string private email;\r\n    string private telephone;\r\n    string private personAddress;\r\n    string private zip;\r\n    string private city;\r\n    \r\n    //HL7 v2 format data\r\n    string[] private medicalData;\r\n    \r\n    constructor(string memory _firstName, string memory _lastName, string memory _SID,\r\n                string memory _year, string memory _month, string memory _day, string memory _email,\r\n                string memory _telephone, string memory _personAddress, string memory _zip, string memory _city)\r\n    public {\r\n        owner = msg.sender;\r\n        firstName = _firstName;\r\n        lastName = _lastName;\r\n        SID = _SID;\r\n        year = _year;\r\n        month = _month;\r\n        day = _day;\r\n        email = _email;\r\n        telephone = _telephone;\r\n        personAddress = _personAddress;\r\n        zip = _zip;\r\n        city = _city;\r\n    }\r\n\r\n    modifier checkAccess(){\r\n        require(getAccess() == true, \"You don't have access to this field\");\r\n        _;\r\n    }\r\n    \r\n    modifier checkAccessDoctor(){\r\n        require(getAccessDoctor() == true, \"You don't have access to this method\");\r\n        _;\r\n    }\r\n\r\n    function getAccess() public view returns(bool access){\r\n        //here will be more validation, but for now I just added this one\r\n        for(uint i = 0; i < doctorsAccess.length; i++){\r\n            if(doctorsAccess[i] == msg.sender){\r\n                return(true);\r\n            }\r\n        }\r\n        return (msg.sender == owner);\r\n    }\r\n    \r\n    function getAccessDoctor() public view returns(bool access){\r\n        for(uint i = 0; i < doctorsAccess.length; i++){\r\n            if(doctorsAccess[i] == msg.sender){\r\n                return(true);\r\n            }\r\n        }\r\n        return (false);\r\n    }\r\n    \r\n    function addMedicalData(string memory _mData) checkAccessDoctor public{\r\n        medicalData.push(_mData);\r\n    }\r\n    \r\n    function addDoctor(address _doctorsAddress) public{\r\n        require(msg.sender == owner, \"Only owner can change this field\");\r\n        doctorsAccess.push(_doctorsAddress);\r\n    }\r\n    \r\n    function removeDoctor(address _doctorsAddress) public returns(bool succesful){\r\n        require(msg.sender == owner, \"Only owner can change this field\");\r\n        //find position\r\n        uint pos = 0;\r\n        for(uint i = 0; i < doctorsAccess.length; i++){\r\n            if(_doctorsAddress == doctorsAccess[i]){\r\n                pos = i;\r\n            }\r\n        }\r\n        \r\n        if(pos == 0 && doctorsAccess[0] != _doctorsAddress){\r\n            return (false);\r\n        }\r\n        \r\n        doctorsAccess[pos] = doctorsAccess[doctorsAccess.length - 1];\r\n        delete doctorsAccess[doctorsAccess.length - 1];\r\n        doctorsAccess.length--;\r\n        \r\n        return (true);\r\n    }\r\n    \r\n\r\n    //getters part\r\n    function getFirstName() public view checkAccess returns (string memory _firstName){\r\n        return(firstName);\r\n    }\r\n    function getLastName() public view checkAccess returns (string memory _lastName){\r\n        return(lastName);\r\n    }\r\n    function getSID() public view checkAccess returns (string memory _SID){\r\n        return(SID);\r\n    }\r\n    function getYear() public view checkAccess returns (string memory _year){\r\n        return(year);\r\n    }\r\n    function getMonth() public view checkAccess returns (string memory _month){\r\n        return(month);\r\n    }\r\n    function getDay() public view checkAccess returns (string memory _day){\r\n        return(day);\r\n    }\r\n    function getEmail() public view checkAccess returns (string memory _email){\r\n        return(email);\r\n    }\r\n    function getTelephone() public view checkAccess returns (string memory _telephone){\r\n        return(telephone);\r\n    }\r\n    function getPersonAddress() public checkAccess view returns (string memory _personAddress){\r\n        return(personAddress);\r\n    }\r\n    function getZip() public view checkAccess returns (string memory _zip){\r\n        return(zip);\r\n    }\r\n    function getCity() public view checkAccess returns (string memory _city){\r\n        return(city);\r\n    }\r\n    function getDoctorsSize() public view checkAccess returns (uint  _doctorsSize){\r\n        return(doctorsAccess.length);\r\n    }\r\n    function getMedicalDataSize() public view checkAccess returns (uint  _medicalDataSize){\r\n        return(medicalData.length);\r\n    }\r\n    function getMedicalDataIndex(uint idx) public view checkAccess returns (string memory _medData){\r\n        return(medicalData[idx]);\r\n    }\r\n    \r\n    //setters part\r\n    function setEmail(string memory _email) public{\r\n        require(msg.sender == owner, \"Only owner can change this field\");\r\n        email = _email;\r\n    }\r\n    function setTelephone(string memory _telephone) public{\r\n        require(msg.sender == owner, \"Only owner can change this field\");\r\n        telephone = _telephone;\r\n    }\r\n    function setAddress(string memory _personAddress) public{\r\n        require(msg.sender == owner, \"Only owner can change this field\");\r\n        personAddress = _personAddress;\r\n    }\r\n    function setCity(string memory _city) public{\r\n        require(msg.sender == owner, \"Only owner can change this field\");\r\n        city = _city;\r\n    }\r\n    function setZip(string memory _zip) public{\r\n        require(msg.sender == owner, \"Only owner can change this field\");\r\n        zip = _zip;\r\n    }\r\n        \r\n}",
  "sourcePath": "C:/Users/Emy/Desktop/Proiect Licenta/EHR-dApp/contracts/Person.sol",
  "compiler": {
    "name": "solc",
    "version": "0.5.0+commit.1d4f565a.Emscripten.clang"
  },
  "schemaVersion": "3.0.1",
  "updatedAt": "2019-06-11T16:11:27.840Z",
  "devdoc": {
    "methods": {}
  },
  "userdoc": {
    "methods": {}
  }
}