{
  "contractName": "Person",
  "abi": [
    {
      "inputs": [
        {
          "name": "_firstName",
          "type": "string"
        },
        {
          "name": "_lastName",
          "type": "string"
        },
        {
          "name": "_SID",
          "type": "string"
        }
      ],
      "payable": false,
      "stateMutability": "nonpayable",
      "type": "constructor"
    },
    {
      "constant": true,
      "inputs": [],
      "name": "getFirstName",
      "outputs": [
        {
          "name": "_firstName",
          "type": "string"
        }
      ],
      "payable": false,
      "stateMutability": "view",
      "type": "function"
    },
    {
      "constant": true,
      "inputs": [],
      "name": "getLastName",
      "outputs": [
        {
          "name": "_lastName",
          "type": "string"
        }
      ],
      "payable": false,
      "stateMutability": "view",
      "type": "function"
    },
    {
      "constant": true,
      "inputs": [],
      "name": "getSID",
      "outputs": [
        {
          "name": "_SID",
          "type": "string"
        }
      ],
      "payable": false,
      "stateMutability": "view",
      "type": "function"
    }
  ],
  "bytecode": "0x608060405234801561001057600080fd5b5060405161076d38038061076d8339810180604052606081101561003357600080fd5b81019080805164010000000081111561004b57600080fd5b8281019050602081018481111561006157600080fd5b815185600182028301116401000000008211171561007e57600080fd5b5050929190602001805164010000000081111561009a57600080fd5b828101905060208101848111156100b057600080fd5b81518560018202830111640100000000821117156100cd57600080fd5b505092919060200180516401000000008111156100e957600080fd5b828101905060208101848111156100ff57600080fd5b815185600182028301116401000000008211171561011c57600080fd5b5050929190505050336000806101000a81548173ffffffffffffffffffffffffffffffffffffffff021916908373ffffffffffffffffffffffffffffffffffffffff160217905550826001908051906020019061017a9291906101b1565b5081600290805190602001906101919291906101b1565b5080600390805190602001906101a89291906101b1565b50505050610256565b828054600181600116156101000203166002900490600052602060002090601f016020900481019282601f106101f257805160ff1916838001178555610220565b82800160010185558215610220579182015b8281111561021f578251825591602001919060010190610204565b5b50905061022d9190610231565b5090565b61025391905b8082111561024f576000816000905550600101610237565b5090565b90565b610508806102656000396000f3fe608060405260043610610057576000357c0100000000000000000000000000000000000000000000000000000000900463ffffffff1680636337fdf91461005c5780636b109282146100ec578063932997f11461017c575b600080fd5b34801561006857600080fd5b5061007161020c565b6040518080602001828103825283818151815260200191508051906020019080838360005b838110156100b1578082015181840152602081019050610096565b50505050905090810190601f1680156100de5780820380516001836020036101000a031916815260200191505b509250505060405180910390f35b3480156100f857600080fd5b506101016102ae565b6040518080602001828103825283818151815260200191508051906020019080838360005b83811015610141578082015181840152602081019050610126565b50505050905090810190601f16801561016e5780820380516001836020036101000a031916815260200191505b509250505060405180910390f35b34801561018857600080fd5b50610191610350565b6040518080602001828103825283818151815260200191508051906020019080838360005b838110156101d15780820151818401526020810190506101b6565b50505050905090810190601f1680156101fe5780820380516001836020036101000a031916815260200191505b509250505060405180910390f35b606060038054600181600116156101000203166002900480601f0160208091040260200160405190810160405280929190818152602001828054600181600116156101000203166002900480156102a45780601f10610279576101008083540402835291602001916102a4565b820191906000526020600020905b81548152906001019060200180831161028757829003601f168201915b5050505050905090565b606060028054600181600116156101000203166002900480601f0160208091040260200160405190810160405280929190818152602001828054600181600116156101000203166002900480156103465780601f1061031b57610100808354040283529160200191610346565b820191906000526020600020905b81548152906001019060200180831161032957829003601f168201915b5050505050905090565b60606000809054906101000a900473ffffffffffffffffffffffffffffffffffffffff1673ffffffffffffffffffffffffffffffffffffffff163373ffffffffffffffffffffffffffffffffffffffff1614151561043c576040517f08c379a00000000000000000000000000000000000000000000000000000000081526004018080602001828103825260298152602001807f596f7520617265206e6f7420616c6c6f7720746f20616363657373207468697381526020017f20636f6e7472616374000000000000000000000000000000000000000000000081525060400191505060405180910390fd5b60018054600181600116156101000203166002900480601f0160208091040260200160405190810160405280929190818152602001828054600181600116156101000203166002900480156104d25780601f106104a7576101008083540402835291602001916104d2565b820191906000526020600020905b8154815290600101906020018083116104b557829003601f168201915b505050505090509056fea165627a7a72305820e5cf2899db06ed77b85a2843ef5abffaea7ea703eaed286640e7e57ca6bfac610029",
  "source": "pragma solidity >=0.4.22 <0.6.0;\r\ncontract Person {\r\n    \r\n    //owner address\r\n    address private owner;\r\n\r\n    //identity\r\n    string private firstName;\r\n    string private lastName;\r\n    string private SID; \r\n    \r\n    //birthday\r\n    string private year;\r\n    string private month;\r\n    string private day;\r\n    \r\n    //contract\r\n    string private email;\r\n    string private telephone;\r\n    string private personAddress;\r\n    string private zip;\r\n    string private city;\r\n    \r\n    //HL7 v2 format data\r\n    string[] private medicalData;\r\n    \r\n    constructor(string memory _firstName, string memory _lastName, string memory _SID) public {\r\n        owner = msg.sender;\r\n        firstName = _firstName;\r\n        lastName = _lastName;\r\n        SID = _SID;\r\n    }\r\n    \r\n    function getFirstName() public view returns (string memory _firstName){\r\n        require(\r\n            msg.sender == owner,\r\n            \"You are not allow to access this contract\"\r\n        );\r\n        _firstName = firstName;\r\n    }\r\n    function getLastName() public view returns (string memory _lastName){\r\n        _lastName = lastName;\r\n    }\r\n    function getSID() public view returns (string memory _SID){\r\n        _SID = SID;\r\n    }\r\n}",
  "sourcePath": "C:/Users/Emy/Desktop/Proiect Licenta/EHR-dApp/contracts/Person.sol",
  "compiler": {
    "name": "solc",
    "version": "0.5.0+commit.1d4f565a.Emscripten.clang"
  },
  "schemaVersion": "3.0.1",
  "updatedAt": "2019-02-27T20:54:45.952Z",
  "devdoc": {
    "methods": {}
  },
  "userdoc": {
    "methods": {}
  }
}