{
  "contractName": "Person",
  "abi": [
    {
      "inputs": [
        {
          "name": "_firstName",
          "type": "string"
        },
        {
          "name": "_lastName",
          "type": "string"
        },
        {
          "name": "_SID",
          "type": "string"
        }
      ],
      "payable": false,
      "stateMutability": "nonpayable",
      "type": "constructor",
      "signature": "constructor"
    },
    {
      "constant": true,
      "inputs": [],
      "name": "getFirstName",
      "outputs": [
        {
          "name": "_firstName",
          "type": "string"
        }
      ],
      "payable": false,
      "stateMutability": "view",
      "type": "function",
      "signature": "0x932997f1"
    },
    {
      "constant": true,
      "inputs": [],
      "name": "getLastName",
      "outputs": [
        {
          "name": "_lastName",
          "type": "string"
        }
      ],
      "payable": false,
      "stateMutability": "view",
      "type": "function",
      "signature": "0x6b109282"
    },
    {
      "constant": true,
      "inputs": [],
      "name": "getSID",
      "outputs": [
        {
          "name": "_SID",
          "type": "string"
        }
      ],
      "payable": false,
      "stateMutability": "view",
      "type": "function",
      "signature": "0x6337fdf9"
    }
  ],
  "bytecode": "0x608060405234801561001057600080fd5b506040516106433803806106438339810180604052606081101561003357600080fd5b81019080805164010000000081111561004b57600080fd5b8281019050602081018481111561006157600080fd5b815185600182028301116401000000008211171561007e57600080fd5b5050929190602001805164010000000081111561009a57600080fd5b828101905060208101848111156100b057600080fd5b81518560018202830111640100000000821117156100cd57600080fd5b505092919060200180516401000000008111156100e957600080fd5b828101905060208101848111156100ff57600080fd5b815185600182028301116401000000008211171561011c57600080fd5b5050929190505050826000908051906020019061013a929190610171565b508160019080519060200190610151929190610171565b508060029080519060200190610168929190610171565b50505050610216565b828054600181600116156101000203166002900490600052602060002090601f016020900481019282601f106101b257805160ff19168380011785556101e0565b828001600101855582156101e0579182015b828111156101df5782518255916020019190600101906101c4565b5b5090506101ed91906101f1565b5090565b61021391905b8082111561020f5760008160009055506001016101f7565b5090565b90565b61041e806102256000396000f3fe608060405260043610610057576000357c0100000000000000000000000000000000000000000000000000000000900463ffffffff1680636337fdf91461005c5780636b109282146100ec578063932997f11461017c575b600080fd5b34801561006857600080fd5b5061007161020c565b6040518080602001828103825283818151815260200191508051906020019080838360005b838110156100b1578082015181840152602081019050610096565b50505050905090810190601f1680156100de5780820380516001836020036101000a031916815260200191505b509250505060405180910390f35b3480156100f857600080fd5b506101016102ae565b6040518080602001828103825283818151815260200191508051906020019080838360005b83811015610141578082015181840152602081019050610126565b50505050905090810190601f16801561016e5780820380516001836020036101000a031916815260200191505b509250505060405180910390f35b34801561018857600080fd5b50610191610350565b6040518080602001828103825283818151815260200191508051906020019080838360005b838110156101d15780820151818401526020810190506101b6565b50505050905090810190601f1680156101fe5780820380516001836020036101000a031916815260200191505b509250505060405180910390f35b606060028054600181600116156101000203166002900480601f0160208091040260200160405190810160405280929190818152602001828054600181600116156101000203166002900480156102a45780601f10610279576101008083540402835291602001916102a4565b820191906000526020600020905b81548152906001019060200180831161028757829003601f168201915b5050505050905090565b606060018054600181600116156101000203166002900480601f0160208091040260200160405190810160405280929190818152602001828054600181600116156101000203166002900480156103465780601f1061031b57610100808354040283529160200191610346565b820191906000526020600020905b81548152906001019060200180831161032957829003601f168201915b5050505050905090565b606060008054600181600116156101000203166002900480601f0160208091040260200160405190810160405280929190818152602001828054600181600116156101000203166002900480156103e85780601f106103bd576101008083540402835291602001916103e8565b820191906000526020600020905b8154815290600101906020018083116103cb57829003601f168201915b505050505090509056fea165627a7a7230582026235a4c7ef90686c9a1603fd527b4aa130bd5ac97f276f9d435e327d20eaad50029",
  "source": "pragma solidity >=0.4.22 <0.6.0;\r\ncontract Person {\r\n    \r\n    //identity\r\n    string private firstName;\r\n    string private lastName;\r\n    string private SID; \r\n    \r\n    //birthday\r\n    string private year;\r\n    string private month;\r\n    string private day;\r\n    \r\n    //contract\r\n    string private email;\r\n    string private telephone;\r\n    string private personAddress;\r\n    string private zip;\r\n    string private city;\r\n    \r\n    //HL7 v2 format data\r\n    string[] private medicalData;\r\n    \r\n    constructor(string memory _firstName, string memory _lastName, string memory _SID) public{\r\n        firstName = _firstName;\r\n        lastName = _lastName;\r\n        SID = _SID;\r\n    }\r\n    \r\n    function getFirstName() public view returns (string memory _firstName){\r\n        _firstName = firstName;\r\n    }\r\n    function getLastName() public view returns (string memory _lastName){\r\n        _lastName = lastName;\r\n    }\r\n    function getSID() public view returns (string memory _SID){\r\n        _SID = SID;\r\n    }\r\n}",
  "sourcePath": "C:/Users/Emy/Desktop/Proiect Licenta/EHR-dApp/contracts/Person.sol",
  "compiler": {
    "name": "solc",
    "version": "0.5.0+commit.1d4f565a.Emscripten.clang"
  },
  "schemaVersion": "3.0.1",
  "updatedAt": "2019-02-24T18:54:24.414Z",
  "devdoc": {
    "methods": {}
  },
  "userdoc": {
    "methods": {}
  }
}