{
  "contractName": "Person",
  "abi": [
    {
      "constant": true,
      "inputs": [
        {
          "name": "",
          "type": "uint256"
        }
      ],
      "name": "doctorsAccess",
      "outputs": [
        {
          "name": "",
          "type": "address"
        }
      ],
      "payable": false,
      "stateMutability": "view",
      "type": "function"
    },
    {
      "inputs": [
        {
          "name": "_firstName",
          "type": "string"
        },
        {
          "name": "_lastName",
          "type": "string"
        },
        {
          "name": "_SID",
          "type": "string"
        },
        {
          "name": "_year",
          "type": "string"
        },
        {
          "name": "_month",
          "type": "string"
        },
        {
          "name": "_day",
          "type": "string"
        },
        {
          "name": "_email",
          "type": "string"
        },
        {
          "name": "_telephone",
          "type": "string"
        },
        {
          "name": "_personAddress",
          "type": "string"
        },
        {
          "name": "_zip",
          "type": "string"
        },
        {
          "name": "_city",
          "type": "string"
        }
      ],
      "payable": false,
      "stateMutability": "nonpayable",
      "type": "constructor"
    },
    {
      "constant": true,
      "inputs": [],
      "name": "getAccess",
      "outputs": [
        {
          "name": "access",
          "type": "bool"
        }
      ],
      "payable": false,
      "stateMutability": "view",
      "type": "function"
    },
    {
      "constant": false,
      "inputs": [
        {
          "name": "_doctorsAddress",
          "type": "address"
        }
      ],
      "name": "addDoctor",
      "outputs": [],
      "payable": false,
      "stateMutability": "nonpayable",
      "type": "function"
    },
    {
      "constant": false,
      "inputs": [
        {
          "name": "_doctorsAddress",
          "type": "address"
        }
      ],
      "name": "removeDoctor",
      "outputs": [
        {
          "name": "succesful",
          "type": "bool"
        }
      ],
      "payable": false,
      "stateMutability": "nonpayable",
      "type": "function"
    },
    {
      "constant": true,
      "inputs": [],
      "name": "getFirstName",
      "outputs": [
        {
          "name": "_firstName",
          "type": "string"
        }
      ],
      "payable": false,
      "stateMutability": "view",
      "type": "function"
    },
    {
      "constant": true,
      "inputs": [],
      "name": "getLastName",
      "outputs": [
        {
          "name": "_lastName",
          "type": "string"
        }
      ],
      "payable": false,
      "stateMutability": "view",
      "type": "function"
    },
    {
      "constant": true,
      "inputs": [],
      "name": "getSID",
      "outputs": [
        {
          "name": "_SID",
          "type": "string"
        }
      ],
      "payable": false,
      "stateMutability": "view",
      "type": "function"
    },
    {
      "constant": true,
      "inputs": [],
      "name": "getYear",
      "outputs": [
        {
          "name": "_year",
          "type": "string"
        }
      ],
      "payable": false,
      "stateMutability": "view",
      "type": "function"
    },
    {
      "constant": true,
      "inputs": [],
      "name": "getMonth",
      "outputs": [
        {
          "name": "_month",
          "type": "string"
        }
      ],
      "payable": false,
      "stateMutability": "view",
      "type": "function"
    },
    {
      "constant": true,
      "inputs": [],
      "name": "getDay",
      "outputs": [
        {
          "name": "_day",
          "type": "string"
        }
      ],
      "payable": false,
      "stateMutability": "view",
      "type": "function"
    },
    {
      "constant": true,
      "inputs": [],
      "name": "getEmail",
      "outputs": [
        {
          "name": "_email",
          "type": "string"
        }
      ],
      "payable": false,
      "stateMutability": "view",
      "type": "function"
    },
    {
      "constant": true,
      "inputs": [],
      "name": "getTelephone",
      "outputs": [
        {
          "name": "_telephone",
          "type": "string"
        }
      ],
      "payable": false,
      "stateMutability": "view",
      "type": "function"
    },
    {
      "constant": true,
      "inputs": [],
      "name": "getPersonAddress",
      "outputs": [
        {
          "name": "_personAddress",
          "type": "string"
        }
      ],
      "payable": false,
      "stateMutability": "view",
      "type": "function"
    },
    {
      "constant": true,
      "inputs": [],
      "name": "getZip",
      "outputs": [
        {
          "name": "_zip",
          "type": "string"
        }
      ],
      "payable": false,
      "stateMutability": "view",
      "type": "function"
    },
    {
      "constant": true,
      "inputs": [],
      "name": "getCity",
      "outputs": [
        {
          "name": "_city",
          "type": "string"
        }
      ],
      "payable": false,
      "stateMutability": "view",
      "type": "function"
    },
    {
      "constant": true,
      "inputs": [],
      "name": "getDoctorsSize",
      "outputs": [
        {
          "name": "_doctorsSize",
          "type": "uint256"
        }
      ],
      "payable": false,
      "stateMutability": "view",
      "type": "function"
    },
    {
      "constant": false,
      "inputs": [
        {
          "name": "_email",
          "type": "string"
        }
      ],
      "name": "setEmail",
      "outputs": [],
      "payable": false,
      "stateMutability": "nonpayable",
      "type": "function"
    },
    {
      "constant": false,
      "inputs": [
        {
          "name": "_telephone",
          "type": "string"
        }
      ],
      "name": "setTelephone",
      "outputs": [],
      "payable": false,
      "stateMutability": "nonpayable",
      "type": "function"
    },
    {
      "constant": false,
      "inputs": [
        {
          "name": "_personAddress",
          "type": "string"
        }
      ],
      "name": "setAddress",
      "outputs": [],
      "payable": false,
      "stateMutability": "nonpayable",
      "type": "function"
    },
    {
      "constant": false,
      "inputs": [
        {
          "name": "_city",
          "type": "string"
        }
      ],
      "name": "setCity",
      "outputs": [],
      "payable": false,
      "stateMutability": "nonpayable",
      "type": "function"
    },
    {
      "constant": false,
      "inputs": [
        {
          "name": "_zip",
          "type": "string"
        }
      ],
      "name": "setZip",
      "outputs": [],
      "payable": false,
      "stateMutability": "nonpayable",
      "type": "function"
    }
  ],
  "bytecode": "0x60806040523480156200001157600080fd5b5060405162002c2738038062002c2783398101806040526101608110156200003857600080fd5b8101908080516401000000008111156200005157600080fd5b828101905060208101848111156200006857600080fd5b81518560018202830111640100000000821117156200008657600080fd5b50509291906020018051640100000000811115620000a357600080fd5b82810190506020810184811115620000ba57600080fd5b8151856001820283011164010000000082111715620000d857600080fd5b50509291906020018051640100000000811115620000f557600080fd5b828101905060208101848111156200010c57600080fd5b81518560018202830111640100000000821117156200012a57600080fd5b505092919060200180516401000000008111156200014757600080fd5b828101905060208101848111156200015e57600080fd5b81518560018202830111640100000000821117156200017c57600080fd5b505092919060200180516401000000008111156200019957600080fd5b82810190506020810184811115620001b057600080fd5b8151856001820283011164010000000082111715620001ce57600080fd5b50509291906020018051640100000000811115620001eb57600080fd5b828101905060208101848111156200020257600080fd5b81518560018202830111640100000000821117156200022057600080fd5b505092919060200180516401000000008111156200023d57600080fd5b828101905060208101848111156200025457600080fd5b81518560018202830111640100000000821117156200027257600080fd5b505092919060200180516401000000008111156200028f57600080fd5b82810190506020810184811115620002a657600080fd5b8151856001820283011164010000000082111715620002c457600080fd5b50509291906020018051640100000000811115620002e157600080fd5b82810190506020810184811115620002f857600080fd5b81518560018202830111640100000000821117156200031657600080fd5b505092919060200180516401000000008111156200033357600080fd5b828101905060208101848111156200034a57600080fd5b81518560018202830111640100000000821117156200036857600080fd5b505092919060200180516401000000008111156200038557600080fd5b828101905060208101848111156200039c57600080fd5b8151856001820283011164010000000082111715620003ba57600080fd5b5050929190505050336000806101000a81548173ffffffffffffffffffffffffffffffffffffffff021916908373ffffffffffffffffffffffffffffffffffffffff1602179055508a600290805190602001906200041a92919062000526565b5089600390805190602001906200043392919062000526565b5088600490805190602001906200044c92919062000526565b5087600590805190602001906200046592919062000526565b5086600690805190602001906200047e92919062000526565b5085600790805190602001906200049792919062000526565b508460089080519060200190620004b092919062000526565b508360099080519060200190620004c992919062000526565b5082600a9080519060200190620004e292919062000526565b5081600b9080519060200190620004fb92919062000526565b5080600c90805190602001906200051492919062000526565b505050505050505050505050620005d5565b828054600181600116156101000203166002900490600052602060002090601f016020900481019282601f106200056957805160ff19168380011785556200059a565b828001600101855582156200059a579182015b82811115620005995782518255916020019190600101906200057c565b5b509050620005a99190620005ad565b5090565b620005d291905b80821115620005ce576000816000905550600101620005b4565b5090565b90565b61264280620005e56000396000f3fe60806040526004361061011d576000357c0100000000000000000000000000000000000000000000000000000000900463ffffffff1680630379915d146101225780630599c284146101b257806311450fe11461027a57806314ba5c091461030a5780631d8f78921461039a578063282b065a1461042a5780632c791c7c146104f25780634780468f146105825780635d65875f146105d357806362a9564c146106635780636337fdf91461068e5780636b1092821461071e5780637e79e8ba146107ae578063932997f11461083e57806398fc90e9146108ce578063b2c85a1e14610937578063e1af0491146109ff578063ec1ef2a414610ac7578063f07513eb14610b42578063f7ca843114610c0a578063fd08921b14610c39575b600080fd5b34801561012e57600080fd5b50610137610cc9565b6040518080602001828103825283818151815260200191508051906020019080838360005b8381101561017757808201518184015260208101905061015c565b50505050905090810190601f1680156101a45780820380516001836020036101000a031916815260200191505b509250505060405180910390f35b3480156101be57600080fd5b50610278600480360360208110156101d557600080fd5b81019080803590602001906401000000008111156101f257600080fd5b82018360208201111561020457600080fd5b8035906020019184600183028401116401000000008311171561022657600080fd5b91908080601f016020809104026020016040519081016040528093929190818152602001838380828437600081840152601f19601f820116905080830192505050505050509192919290505050610e14565b005b34801561028657600080fd5b5061028f610ef2565b6040518080602001828103825283818151815260200191508051906020019080838360005b838110156102cf5780820151818401526020810190506102b4565b50505050905090810190601f1680156102fc5780820380516001836020036101000a031916815260200191505b509250505060405180910390f35b34801561031657600080fd5b5061031f61103d565b6040518080602001828103825283818151815260200191508051906020019080838360005b8381101561035f578082015181840152602081019050610344565b50505050905090810190601f16801561038c5780820380516001836020036101000a031916815260200191505b509250505060405180910390f35b3480156103a657600080fd5b506103af611188565b6040518080602001828103825283818151815260200191508051906020019080838360005b838110156103ef5780820151818401526020810190506103d4565b50505050905090810190601f16801561041c5780820380516001836020036101000a031916815260200191505b509250505060405180910390f35b34801561043657600080fd5b506104f06004803603602081101561044d57600080fd5b810190808035906020019064010000000081111561046a57600080fd5b82018360208201111561047c57600080fd5b8035906020019184600183028401116401000000008311171561049e57600080fd5b91908080601f016020809104026020016040519081016040528093929190818152602001838380828437600081840152601f19601f8201169050808301925050505050505091929192905050506112d3565b005b3480156104fe57600080fd5b506105076113b1565b6040518080602001828103825283818151815260200191508051906020019080838360005b8381101561054757808201518184015260208101905061052c565b50505050905090810190601f1680156105745780820380516001836020036101000a031916815260200191505b509250505060405180910390f35b34801561058e57600080fd5b506105d1600480360360208110156105a557600080fd5b81019080803573ffffffffffffffffffffffffffffffffffffffff1690602001909291905050506114fc565b005b3480156105df57600080fd5b506105e8611629565b6040518080602001828103825283818151815260200191508051906020019080838360005b8381101561062857808201518184015260208101905061060d565b50505050905090810190601f1680156106555780820380516001836020036101000a031916815260200191505b509250505060405180910390f35b34801561066f57600080fd5b50610678611774565b6040518082815260200191505060405180910390f35b34801561069a57600080fd5b506106a361182a565b6040518080602001828103825283818151815260200191508051906020019080838360005b838110156106e35780820151818401526020810190506106c8565b50505050905090810190601f1680156107105780820380516001836020036101000a031916815260200191505b509250505060405180910390f35b34801561072a57600080fd5b50610733611975565b6040518080602001828103825283818151815260200191508051906020019080838360005b83811015610773578082015181840152602081019050610758565b50505050905090810190601f1680156107a05780820380516001836020036101000a031916815260200191505b509250505060405180910390f35b3480156107ba57600080fd5b506107c3611ac0565b6040518080602001828103825283818151815260200191508051906020019080838360005b838110156108035780820151818401526020810190506107e8565b50505050905090810190601f1680156108305780820380516001836020036101000a031916815260200191505b509250505060405180910390f35b34801561084a57600080fd5b50610853611c0b565b6040518080602001828103825283818151815260200191508051906020019080838360005b83811015610893578082015181840152602081019050610878565b50505050905090810190601f1680156108c05780820380516001836020036101000a031916815260200191505b509250505060405180910390f35b3480156108da57600080fd5b5061091d600480360360208110156108f157600080fd5b81019080803573ffffffffffffffffffffffffffffffffffffffff169060200190929190505050611d56565b604051808215151515815260200191505060405180910390f35b34801561094357600080fd5b506109fd6004803603602081101561095a57600080fd5b810190808035906020019064010000000081111561097757600080fd5b82018360208201111561098957600080fd5b803590602001918460018302840111640100000000831117156109ab57600080fd5b91908080601f016020809104026020016040519081016040528093929190818152602001838380828437600081840152601f19601f820116905080830192505050505050509192919290505050612032565b005b348015610a0b57600080fd5b50610ac560048036036020811015610a2257600080fd5b8101908080359060200190640100000000811115610a3f57600080fd5b820183602082011115610a5157600080fd5b80359060200191846001830284011164010000000083111715610a7357600080fd5b91908080601f016020809104026020016040519081016040528093929190818152602001838380828437600081840152601f19601f820116905080830192505050505050509192919290505050612110565b005b348015610ad357600080fd5b50610b0060048036036020811015610aea57600080fd5b81019080803590602001909291905050506121ee565b604051808273ffffffffffffffffffffffffffffffffffffffff1673ffffffffffffffffffffffffffffffffffffffff16815260200191505060405180910390f35b348015610b4e57600080fd5b50610c0860048036036020811015610b6557600080fd5b8101908080359060200190640100000000811115610b8257600080fd5b820183602082011115610b9457600080fd5b80359060200191846001830284011164010000000083111715610bb657600080fd5b91908080601f016020809104026020016040519081016040528093929190818152602001838380828437600081840152601f19601f82011690508083019250505050505050919291929050505061222c565b005b348015610c1657600080fd5b50610c1f61230a565b604051808215151515815260200191505060405180910390f35b348015610c4557600080fd5b50610c4e6123fa565b6040518080602001828103825283818151815260200191508051906020019080838360005b83811015610c8e578082015181840152602081019050610c73565b50505050905090810190601f168015610cbb5780820380516001836020036101000a031916815260200191505b509250505060405180910390f35b606060011515610cd761230a565b1515141515610d74576040517f08c379a00000000000000000000000000000000000000000000000000000000081526004018080602001828103825260238152602001807f596f7520646f6e277420686176652061636365737320746f207468697320666981526020017f656c64000000000000000000000000000000000000000000000000000000000081525060400191505060405180910390fd5b600c8054600181600116156101000203166002900480601f016020809104026020016040519081016040528092919081815260200182805460018160011615610100020316600290048015610e0a5780601f10610ddf57610100808354040283529160200191610e0a565b820191906000526020600020905b815481529060010190602001808311610ded57829003601f168201915b5050505050905090565b6000809054906101000a900473ffffffffffffffffffffffffffffffffffffffff1673ffffffffffffffffffffffffffffffffffffffff163373ffffffffffffffffffffffffffffffffffffffff16141515610ed8576040517f08c379a00000000000000000000000000000000000000000000000000000000081526004018080602001828103825260208152602001807f4f6e6c79206f776e65722063616e206368616e67652074686973206669656c6481525060200191505060405180910390fd5b80600a9080519060200190610eee929190612545565b5050565b606060011515610f0061230a565b1515141515610f9d576040517f08c379a00000000000000000000000000000000000000000000000000000000081526004018080602001828103825260238152602001807f596f7520646f6e277420686176652061636365737320746f207468697320666981526020017f656c64000000000000000000000000000000000000000000000000000000000081525060400191505060405180910390fd5b600b8054600181600116156101000203166002900480601f0160208091040260200160405190810160405280929190818152602001828054600181600116156101000203166002900480156110335780601f1061100857610100808354040283529160200191611033565b820191906000526020600020905b81548152906001019060200180831161101657829003601f168201915b5050505050905090565b60606001151561104b61230a565b15151415156110e8576040517f08c379a00000000000000000000000000000000000000000000000000000000081526004018080602001828103825260238152602001807f596f7520646f6e277420686176652061636365737320746f207468697320666981526020017f656c64000000000000000000000000000000000000000000000000000000000081525060400191505060405180910390fd5b60078054600181600116156101000203166002900480601f01602080910402602001604051908101604052809291908181526020018280546001816001161561010002031660029004801561117e5780601f106111535761010080835404028352916020019161117e565b820191906000526020600020905b81548152906001019060200180831161116157829003601f168201915b5050505050905090565b60606001151561119661230a565b1515141515611233576040517f08c379a00000000000000000000000000000000000000000000000000000000081526004018080602001828103825260238152602001807f596f7520646f6e277420686176652061636365737320746f207468697320666981526020017f656c64000000000000000000000000000000000000000000000000000000000081525060400191505060405180910390fd5b60068054600181600116156101000203166002900480601f0160208091040260200160405190810160405280929190818152602001828054600181600116156101000203166002900480156112c95780601f1061129e576101008083540402835291602001916112c9565b820191906000526020600020905b8154815290600101906020018083116112ac57829003601f168201915b5050505050905090565b6000809054906101000a900473ffffffffffffffffffffffffffffffffffffffff1673ffffffffffffffffffffffffffffffffffffffff163373ffffffffffffffffffffffffffffffffffffffff16141515611397576040517f08c379a00000000000000000000000000000000000000000000000000000000081526004018080602001828103825260208152602001807f4f6e6c79206f776e65722063616e206368616e67652074686973206669656c6481525060200191505060405180910390fd5b80600890805190602001906113ad929190612545565b5050565b6060600115156113bf61230a565b151514151561145c576040517f08c379a00000000000000000000000000000000000000000000000000000000081526004018080602001828103825260238152602001807f596f7520646f6e277420686176652061636365737320746f207468697320666981526020017f656c64000000000000000000000000000000000000000000000000000000000081525060400191505060405180910390fd5b60098054600181600116156101000203166002900480601f0160208091040260200160405190810160405280929190818152602001828054600181600116156101000203166002900480156114f25780601f106114c7576101008083540402835291602001916114f2565b820191906000526020600020905b8154815290600101906020018083116114d557829003601f168201915b5050505050905090565b6000809054906101000a900473ffffffffffffffffffffffffffffffffffffffff1673ffffffffffffffffffffffffffffffffffffffff163373ffffffffffffffffffffffffffffffffffffffff161415156115c0576040517f08c379a00000000000000000000000000000000000000000000000000000000081526004018080602001828103825260208152602001807f4f6e6c79206f776e65722063616e206368616e67652074686973206669656c6481525060200191505060405180910390fd5b60018190806001815401808255809150509060018203906000526020600020016000909192909190916101000a81548173ffffffffffffffffffffffffffffffffffffffff021916908373ffffffffffffffffffffffffffffffffffffffff1602179055505050565b60606001151561163761230a565b15151415156116d4576040517f08c379a00000000000000000000000000000000000000000000000000000000081526004018080602001828103825260238152602001807f596f7520646f6e277420686176652061636365737320746f207468697320666981526020017f656c64000000000000000000000000000000000000000000000000000000000081525060400191505060405180910390fd5b600a8054600181600116156101000203166002900480601f01602080910402602001604051908101604052809291908181526020018280546001816001161561010002031660029004801561176a5780601f1061173f5761010080835404028352916020019161176a565b820191906000526020600020905b81548152906001019060200180831161174d57829003601f168201915b5050505050905090565b60006001151561178261230a565b151514151561181f576040517f08c379a00000000000000000000000000000000000000000000000000000000081526004018080602001828103825260238152602001807f596f7520646f6e277420686176652061636365737320746f207468697320666981526020017f656c64000000000000000000000000000000000000000000000000000000000081525060400191505060405180910390fd5b600180549050905090565b60606001151561183861230a565b15151415156118d5576040517f08c379a00000000000000000000000000000000000000000000000000000000081526004018080602001828103825260238152602001807f596f7520646f6e277420686176652061636365737320746f207468697320666981526020017f656c64000000000000000000000000000000000000000000000000000000000081525060400191505060405180910390fd5b60048054600181600116156101000203166002900480601f01602080910402602001604051908101604052809291908181526020018280546001816001161561010002031660029004801561196b5780601f106119405761010080835404028352916020019161196b565b820191906000526020600020905b81548152906001019060200180831161194e57829003601f168201915b5050505050905090565b60606001151561198361230a565b1515141515611a20576040517f08c379a00000000000000000000000000000000000000000000000000000000081526004018080602001828103825260238152602001807f596f7520646f6e277420686176652061636365737320746f207468697320666981526020017f656c64000000000000000000000000000000000000000000000000000000000081525060400191505060405180910390fd5b60038054600181600116156101000203166002900480601f016020809104026020016040519081016040528092919081815260200182805460018160011615610100020316600290048015611ab65780601f10611a8b57610100808354040283529160200191611ab6565b820191906000526020600020905b815481529060010190602001808311611a9957829003601f168201915b5050505050905090565b606060011515611ace61230a565b1515141515611b6b576040517f08c379a00000000000000000000000000000000000000000000000000000000081526004018080602001828103825260238152602001807f596f7520646f6e277420686176652061636365737320746f207468697320666981526020017f656c64000000000000000000000000000000000000000000000000000000000081525060400191505060405180910390fd5b60088054600181600116156101000203166002900480601f016020809104026020016040519081016040528092919081815260200182805460018160011615610100020316600290048015611c015780601f10611bd657610100808354040283529160200191611c01565b820191906000526020600020905b815481529060010190602001808311611be457829003601f168201915b5050505050905090565b606060011515611c1961230a565b1515141515611cb6576040517f08c379a00000000000000000000000000000000000000000000000000000000081526004018080602001828103825260238152602001807f596f7520646f6e277420686176652061636365737320746f207468697320666981526020017f656c64000000000000000000000000000000000000000000000000000000000081525060400191505060405180910390fd5b60028054600181600116156101000203166002900480601f016020809104026020016040519081016040528092919081815260200182805460018160011615610100020316600290048015611d4c5780601f10611d2157610100808354040283529160200191611d4c565b820191906000526020600020905b815481529060010190602001808311611d2f57829003601f168201915b5050505050905090565b60008060009054906101000a900473ffffffffffffffffffffffffffffffffffffffff1673ffffffffffffffffffffffffffffffffffffffff163373ffffffffffffffffffffffffffffffffffffffff16141515611e1c576040517f08c379a00000000000000000000000000000000000000000000000000000000081526004018080602001828103825260208152602001807f4f6e6c79206f776e65722063616e206368616e67652074686973206669656c6481525060200191505060405180910390fd5b600080905060008090505b600180549050811015611eb257600181815481101515611e4357fe5b9060005260206000200160009054906101000a900473ffffffffffffffffffffffffffffffffffffffff1673ffffffffffffffffffffffffffffffffffffffff168473ffffffffffffffffffffffffffffffffffffffff161415611ea5578091505b8080600101915050611e27565b50600081148015611f2957508273ffffffffffffffffffffffffffffffffffffffff1660016000815481101515611ee557fe5b9060005260206000200160009054906101000a900473ffffffffffffffffffffffffffffffffffffffff1673ffffffffffffffffffffffffffffffffffffffff1614155b15611f3857600091505061202d565b600180808054905003815481101515611f4d57fe5b9060005260206000200160009054906101000a900473ffffffffffffffffffffffffffffffffffffffff16600182815481101515611f8757fe5b9060005260206000200160006101000a81548173ffffffffffffffffffffffffffffffffffffffff021916908373ffffffffffffffffffffffffffffffffffffffff160217905550600180808054905003815481101515611fe457fe5b9060005260206000200160006101000a81549073ffffffffffffffffffffffffffffffffffffffff0219169055600180548091906001900361202691906125c5565b5060019150505b919050565b6000809054906101000a900473ffffffffffffffffffffffffffffffffffffffff1673ffffffffffffffffffffffffffffffffffffffff163373ffffffffffffffffffffffffffffffffffffffff161415156120f6576040517f08c379a00000000000000000000000000000000000000000000000000000000081526004018080602001828103825260208152602001807f4f6e6c79206f776e65722063616e206368616e67652074686973206669656c6481525060200191505060405180910390fd5b806009908051906020019061210c929190612545565b5050565b6000809054906101000a900473ffffffffffffffffffffffffffffffffffffffff1673ffffffffffffffffffffffffffffffffffffffff163373ffffffffffffffffffffffffffffffffffffffff161415156121d4576040517f08c379a00000000000000000000000000000000000000000000000000000000081526004018080602001828103825260208152602001807f4f6e6c79206f776e65722063616e206368616e67652074686973206669656c6481525060200191505060405180910390fd5b80600b90805190602001906121ea929190612545565b5050565b6001818154811015156121fd57fe5b906000526020600020016000915054906101000a900473ffffffffffffffffffffffffffffffffffffffff1681565b6000809054906101000a900473ffffffffffffffffffffffffffffffffffffffff1673ffffffffffffffffffffffffffffffffffffffff163373ffffffffffffffffffffffffffffffffffffffff161415156122f0576040517f08c379a00000000000000000000000000000000000000000000000000000000081526004018080602001828103825260208152602001807f4f6e6c79206f776e65722063616e206368616e67652074686973206669656c6481525060200191505060405180910390fd5b80600c9080519060200190612306929190612545565b5050565b600080600090505b6001805490508110156123a3573373ffffffffffffffffffffffffffffffffffffffff1660018281548110151561234557fe5b9060005260206000200160009054906101000a900473ffffffffffffffffffffffffffffffffffffffff1673ffffffffffffffffffffffffffffffffffffffff1614156123965760019150506123f7565b8080600101915050612312565b506000809054906101000a900473ffffffffffffffffffffffffffffffffffffffff1673ffffffffffffffffffffffffffffffffffffffff163373ffffffffffffffffffffffffffffffffffffffff161490505b90565b60606001151561240861230a565b15151415156124a5576040517f08c379a00000000000000000000000000000000000000000000000000000000081526004018080602001828103825260238152602001807f596f7520646f6e277420686176652061636365737320746f207468697320666981526020017f656c64000000000000000000000000000000000000000000000000000000000081525060400191505060405180910390fd5b60058054600181600116156101000203166002900480601f01602080910402602001604051908101604052809291908181526020018280546001816001161561010002031660029004801561253b5780601f106125105761010080835404028352916020019161253b565b820191906000526020600020905b81548152906001019060200180831161251e57829003601f168201915b5050505050905090565b828054600181600116156101000203166002900490600052602060002090601f016020900481019282601f1061258657805160ff19168380011785556125b4565b828001600101855582156125b4579182015b828111156125b3578251825591602001919060010190612598565b5b5090506125c191906125f1565b5090565b8154818355818111156125ec578183600052602060002091820191016125eb91906125f1565b5b505050565b61261391905b8082111561260f5760008160009055506001016125f7565b5090565b9056fea165627a7a72305820eb32bc0756d723a5599e8746be897e5ee47a6238eb8838d01f096f41f02a8e190029",
  "source": "pragma solidity >=0.4.22 <0.6.0;\r\ncontract Person {\r\n    \r\n    //owner address\r\n    address private owner;\r\n    \r\n    //doctors list who can access my data\r\n    address[] public doctorsAccess;\r\n\r\n    //identity\r\n    string private firstName;\r\n    string private lastName;\r\n    string private SID; \r\n    \r\n    //birthday\r\n    string private year;\r\n    string private month;\r\n    string private day;\r\n    \r\n    //contract\r\n    string private email;\r\n    string private telephone;\r\n    string private personAddress;\r\n    string private zip;\r\n    string private city;\r\n    \r\n    //HL7 v2 format data\r\n    string[] private medicalData;\r\n    \r\n    constructor(string memory _firstName, string memory _lastName, string memory _SID,\r\n                string memory _year, string memory _month, string memory _day, string memory _email,\r\n                string memory _telephone, string memory _personAddress, string memory _zip, string memory _city)\r\n    public {\r\n        owner = msg.sender;\r\n        firstName = _firstName;\r\n        lastName = _lastName;\r\n        SID = _SID;\r\n        year = _year;\r\n        month = _month;\r\n        day = _day;\r\n        email = _email;\r\n        telephone = _telephone;\r\n        personAddress = _personAddress;\r\n        zip = _zip;\r\n        city = _city;\r\n    }\r\n\r\n    modifier checkAccess(){\r\n        require(getAccess() == true, \"You don't have access to this field\");\r\n        _;\r\n    }\r\n\r\n    function getAccess() public view returns(bool access){\r\n        //here will be more validation, but for now I just added this one\r\n        for(uint i = 0; i < doctorsAccess.length; i++){\r\n            if(doctorsAccess[i] == msg.sender){\r\n                return(true);\r\n            }\r\n        }\r\n        return (msg.sender == owner);\r\n    }\r\n    \r\n    function addDoctor(address _doctorsAddress) public{\r\n        require(msg.sender == owner, \"Only owner can change this field\");\r\n        doctorsAccess.push(_doctorsAddress);\r\n    }\r\n    \r\n    function removeDoctor(address _doctorsAddress) public returns(bool succesful){\r\n        require(msg.sender == owner, \"Only owner can change this field\");\r\n        //find position\r\n        uint pos = 0;\r\n        for(uint i = 0; i < doctorsAccess.length; i++){\r\n            if(_doctorsAddress == doctorsAccess[i]){\r\n                pos = i;\r\n            }\r\n        }\r\n        \r\n        if(pos == 0 && doctorsAccess[0] != _doctorsAddress){\r\n            return (false);\r\n        }\r\n        \r\n        doctorsAccess[pos] = doctorsAccess[doctorsAccess.length - 1];\r\n        delete doctorsAccess[doctorsAccess.length - 1];\r\n        doctorsAccess.length--;\r\n        \r\n        return (true);\r\n    }\r\n    \r\n\r\n    //getters part\r\n    function getFirstName() public view checkAccess returns (string memory _firstName){\r\n        return(firstName);\r\n    }\r\n    function getLastName() public view checkAccess returns (string memory _lastName){\r\n        return(lastName);\r\n    }\r\n    function getSID() public view checkAccess returns (string memory _SID){\r\n        return(SID);\r\n    }\r\n    function getYear() public view checkAccess returns (string memory _year){\r\n        return(year);\r\n    }\r\n    function getMonth() public view checkAccess returns (string memory _month){\r\n        return(month);\r\n    }\r\n    function getDay() public view checkAccess returns (string memory _day){\r\n        return(day);\r\n    }\r\n    function getEmail() public view checkAccess returns (string memory _email){\r\n        return(email);\r\n    }\r\n    function getTelephone() public view checkAccess returns (string memory _telephone){\r\n        return(telephone);\r\n    }\r\n    function getPersonAddress() public checkAccess view returns (string memory _personAddress){\r\n        return(personAddress);\r\n    }\r\n    function getZip() public view checkAccess returns (string memory _zip){\r\n        return(zip);\r\n    }\r\n    function getCity() public view checkAccess returns (string memory _city){\r\n        return(city);\r\n    }\r\n    function getDoctorsSize() public view checkAccess returns (uint  _doctorsSize){\r\n        return(doctorsAccess.length);\r\n    }\r\n    \r\n    //setters part\r\n    function setEmail(string memory _email) public{\r\n        require(msg.sender == owner, \"Only owner can change this field\");\r\n        email = _email;\r\n    }\r\n    function setTelephone(string memory _telephone) public{\r\n        require(msg.sender == owner, \"Only owner can change this field\");\r\n        telephone = _telephone;\r\n    }\r\n    function setAddress(string memory _personAddress) public{\r\n        require(msg.sender == owner, \"Only owner can change this field\");\r\n        personAddress = _personAddress;\r\n    }\r\n    function setCity(string memory _city) public{\r\n        require(msg.sender == owner, \"Only owner can change this field\");\r\n        city = _city;\r\n    }\r\n    function setZip(string memory _zip) public{\r\n        require(msg.sender == owner, \"Only owner can change this field\");\r\n        zip = _zip;\r\n    }\r\n       \r\n}",
  "sourcePath": "C:/Users/Emy/Desktop/Proiect Licenta/EHR-dApp/contracts/Person.sol",
  "compiler": {
    "name": "solc",
    "version": "0.5.0+commit.1d4f565a.Emscripten.clang"
  },
  "schemaVersion": "3.0.1",
  "updatedAt": "2019-04-28T18:16:11.192Z",
  "devdoc": {
    "methods": {}
  },
  "userdoc": {
    "methods": {}
  }
}