{
  "contractName": "Person",
  "abi": [
    {
      "constant": true,
      "inputs": [
        {
          "name": "",
          "type": "uint256"
        }
      ],
      "name": "doctorsAccess",
      "outputs": [
        {
          "name": "",
          "type": "address"
        }
      ],
      "payable": false,
      "stateMutability": "view",
      "type": "function"
    },
    {
      "inputs": [
        {
          "name": "_firstName",
          "type": "string"
        },
        {
          "name": "_lastName",
          "type": "string"
        },
        {
          "name": "_SID",
          "type": "string"
        },
        {
          "name": "_year",
          "type": "string"
        },
        {
          "name": "_month",
          "type": "string"
        },
        {
          "name": "_day",
          "type": "string"
        },
        {
          "name": "_email",
          "type": "string"
        },
        {
          "name": "_telephone",
          "type": "string"
        },
        {
          "name": "_personAddress",
          "type": "string"
        },
        {
          "name": "_zip",
          "type": "string"
        },
        {
          "name": "_city",
          "type": "string"
        }
      ],
      "payable": false,
      "stateMutability": "nonpayable",
      "type": "constructor"
    },
    {
      "constant": true,
      "inputs": [],
      "name": "getAccess",
      "outputs": [
        {
          "name": "access",
          "type": "bool"
        }
      ],
      "payable": false,
      "stateMutability": "view",
      "type": "function"
    },
    {
      "constant": false,
      "inputs": [
        {
          "name": "_doctorsAddress",
          "type": "address"
        }
      ],
      "name": "addDoctor",
      "outputs": [],
      "payable": false,
      "stateMutability": "nonpayable",
      "type": "function"
    },
    {
      "constant": false,
      "inputs": [
        {
          "name": "_doctorsAddress",
          "type": "address"
        }
      ],
      "name": "removeDoctor",
      "outputs": [
        {
          "name": "succesful",
          "type": "bool"
        }
      ],
      "payable": false,
      "stateMutability": "nonpayable",
      "type": "function"
    },
    {
      "constant": true,
      "inputs": [],
      "name": "getFirstName",
      "outputs": [
        {
          "name": "_firstName",
          "type": "string"
        }
      ],
      "payable": false,
      "stateMutability": "view",
      "type": "function"
    },
    {
      "constant": true,
      "inputs": [],
      "name": "getLastName",
      "outputs": [
        {
          "name": "_lastName",
          "type": "string"
        }
      ],
      "payable": false,
      "stateMutability": "view",
      "type": "function"
    },
    {
      "constant": true,
      "inputs": [],
      "name": "getSID",
      "outputs": [
        {
          "name": "_SID",
          "type": "string"
        }
      ],
      "payable": false,
      "stateMutability": "view",
      "type": "function"
    },
    {
      "constant": true,
      "inputs": [],
      "name": "getYear",
      "outputs": [
        {
          "name": "_year",
          "type": "string"
        }
      ],
      "payable": false,
      "stateMutability": "view",
      "type": "function"
    },
    {
      "constant": true,
      "inputs": [],
      "name": "getMonth",
      "outputs": [
        {
          "name": "_month",
          "type": "string"
        }
      ],
      "payable": false,
      "stateMutability": "view",
      "type": "function"
    },
    {
      "constant": true,
      "inputs": [],
      "name": "getDay",
      "outputs": [
        {
          "name": "_day",
          "type": "string"
        }
      ],
      "payable": false,
      "stateMutability": "view",
      "type": "function"
    },
    {
      "constant": true,
      "inputs": [],
      "name": "getEmail",
      "outputs": [
        {
          "name": "_email",
          "type": "string"
        }
      ],
      "payable": false,
      "stateMutability": "view",
      "type": "function"
    },
    {
      "constant": true,
      "inputs": [],
      "name": "getTelephone",
      "outputs": [
        {
          "name": "_telephone",
          "type": "string"
        }
      ],
      "payable": false,
      "stateMutability": "view",
      "type": "function"
    },
    {
      "constant": true,
      "inputs": [],
      "name": "getPersonAddress",
      "outputs": [
        {
          "name": "_personAddress",
          "type": "string"
        }
      ],
      "payable": false,
      "stateMutability": "view",
      "type": "function"
    },
    {
      "constant": true,
      "inputs": [],
      "name": "getZip",
      "outputs": [
        {
          "name": "_zip",
          "type": "string"
        }
      ],
      "payable": false,
      "stateMutability": "view",
      "type": "function"
    },
    {
      "constant": true,
      "inputs": [],
      "name": "getCity",
      "outputs": [
        {
          "name": "_city",
          "type": "string"
        }
      ],
      "payable": false,
      "stateMutability": "view",
      "type": "function"
    },
    {
      "constant": false,
      "inputs": [
        {
          "name": "_email",
          "type": "string"
        }
      ],
      "name": "setEmail",
      "outputs": [],
      "payable": false,
      "stateMutability": "nonpayable",
      "type": "function"
    },
    {
      "constant": false,
      "inputs": [
        {
          "name": "_telephone",
          "type": "string"
        }
      ],
      "name": "setTelephone",
      "outputs": [],
      "payable": false,
      "stateMutability": "nonpayable",
      "type": "function"
    },
    {
      "constant": false,
      "inputs": [
        {
          "name": "_personAddress",
          "type": "string"
        }
      ],
      "name": "setAddress",
      "outputs": [],
      "payable": false,
      "stateMutability": "nonpayable",
      "type": "function"
    },
    {
      "constant": false,
      "inputs": [
        {
          "name": "_city",
          "type": "string"
        }
      ],
      "name": "setCity",
      "outputs": [],
      "payable": false,
      "stateMutability": "nonpayable",
      "type": "function"
    },
    {
      "constant": false,
      "inputs": [
        {
          "name": "_zip",
          "type": "string"
        }
      ],
      "name": "setZip",
      "outputs": [],
      "payable": false,
      "stateMutability": "nonpayable",
      "type": "function"
    }
  ],
  "bytecode": "0x60806040523480156200001157600080fd5b5060405162002af938038062002af983398101806040526101608110156200003857600080fd5b8101908080516401000000008111156200005157600080fd5b828101905060208101848111156200006857600080fd5b81518560018202830111640100000000821117156200008657600080fd5b50509291906020018051640100000000811115620000a357600080fd5b82810190506020810184811115620000ba57600080fd5b8151856001820283011164010000000082111715620000d857600080fd5b50509291906020018051640100000000811115620000f557600080fd5b828101905060208101848111156200010c57600080fd5b81518560018202830111640100000000821117156200012a57600080fd5b505092919060200180516401000000008111156200014757600080fd5b828101905060208101848111156200015e57600080fd5b81518560018202830111640100000000821117156200017c57600080fd5b505092919060200180516401000000008111156200019957600080fd5b82810190506020810184811115620001b057600080fd5b8151856001820283011164010000000082111715620001ce57600080fd5b50509291906020018051640100000000811115620001eb57600080fd5b828101905060208101848111156200020257600080fd5b81518560018202830111640100000000821117156200022057600080fd5b505092919060200180516401000000008111156200023d57600080fd5b828101905060208101848111156200025457600080fd5b81518560018202830111640100000000821117156200027257600080fd5b505092919060200180516401000000008111156200028f57600080fd5b82810190506020810184811115620002a657600080fd5b8151856001820283011164010000000082111715620002c457600080fd5b50509291906020018051640100000000811115620002e157600080fd5b82810190506020810184811115620002f857600080fd5b81518560018202830111640100000000821117156200031657600080fd5b505092919060200180516401000000008111156200033357600080fd5b828101905060208101848111156200034a57600080fd5b81518560018202830111640100000000821117156200036857600080fd5b505092919060200180516401000000008111156200038557600080fd5b828101905060208101848111156200039c57600080fd5b8151856001820283011164010000000082111715620003ba57600080fd5b5050929190505050336000806101000a81548173ffffffffffffffffffffffffffffffffffffffff021916908373ffffffffffffffffffffffffffffffffffffffff1602179055508a600290805190602001906200041a92919062000526565b5089600390805190602001906200043392919062000526565b5088600490805190602001906200044c92919062000526565b5087600590805190602001906200046592919062000526565b5086600690805190602001906200047e92919062000526565b5085600790805190602001906200049792919062000526565b508460089080519060200190620004b092919062000526565b508360099080519060200190620004c992919062000526565b5082600a9080519060200190620004e292919062000526565b5081600b9080519060200190620004fb92919062000526565b5080600c90805190602001906200051492919062000526565b505050505050505050505050620005d5565b828054600181600116156101000203166002900490600052602060002090601f016020900481019282601f106200056957805160ff19168380011785556200059a565b828001600101855582156200059a579182015b82811115620005995782518255916020019190600101906200057c565b5b509050620005a99190620005ad565b5090565b620005d291905b80821115620005ce576000816000905550600101620005b4565b5090565b90565b61251480620005e56000396000f3fe608060405260043610610112576000357c0100000000000000000000000000000000000000000000000000000000900463ffffffff1680630379915d146101175780630599c284146101a757806311450fe11461026f57806314ba5c09146102ff5780631d8f78921461038f578063282b065a1461041f5780632c791c7c146104e75780634780468f146105775780635d65875f146105c85780636337fdf9146106585780636b109282146106e85780637e79e8ba14610778578063932997f11461080857806398fc90e914610898578063b2c85a1e14610901578063e1af0491146109c9578063ec1ef2a414610a91578063f07513eb14610b0c578063f7ca843114610bd4578063fd08921b14610c03575b600080fd5b34801561012357600080fd5b5061012c610c93565b6040518080602001828103825283818151815260200191508051906020019080838360005b8381101561016c578082015181840152602081019050610151565b50505050905090810190601f1680156101995780820380516001836020036101000a031916815260200191505b509250505060405180910390f35b3480156101b357600080fd5b5061026d600480360360208110156101ca57600080fd5b81019080803590602001906401000000008111156101e757600080fd5b8201836020820111156101f957600080fd5b8035906020019184600183028401116401000000008311171561021b57600080fd5b91908080601f016020809104026020016040519081016040528093929190818152602001838380828437600081840152601f19601f820116905080830192505050505050509192919290505050610dde565b005b34801561027b57600080fd5b50610284610ebc565b6040518080602001828103825283818151815260200191508051906020019080838360005b838110156102c45780820151818401526020810190506102a9565b50505050905090810190601f1680156102f15780820380516001836020036101000a031916815260200191505b509250505060405180910390f35b34801561030b57600080fd5b50610314611007565b6040518080602001828103825283818151815260200191508051906020019080838360005b83811015610354578082015181840152602081019050610339565b50505050905090810190601f1680156103815780820380516001836020036101000a031916815260200191505b509250505060405180910390f35b34801561039b57600080fd5b506103a4611152565b6040518080602001828103825283818151815260200191508051906020019080838360005b838110156103e45780820151818401526020810190506103c9565b50505050905090810190601f1680156104115780820380516001836020036101000a031916815260200191505b509250505060405180910390f35b34801561042b57600080fd5b506104e56004803603602081101561044257600080fd5b810190808035906020019064010000000081111561045f57600080fd5b82018360208201111561047157600080fd5b8035906020019184600183028401116401000000008311171561049357600080fd5b91908080601f016020809104026020016040519081016040528093929190818152602001838380828437600081840152601f19601f82011690508083019250505050505050919291929050505061129d565b005b3480156104f357600080fd5b506104fc61137b565b6040518080602001828103825283818151815260200191508051906020019080838360005b8381101561053c578082015181840152602081019050610521565b50505050905090810190601f1680156105695780820380516001836020036101000a031916815260200191505b509250505060405180910390f35b34801561058357600080fd5b506105c66004803603602081101561059a57600080fd5b81019080803573ffffffffffffffffffffffffffffffffffffffff1690602001909291905050506114c6565b005b3480156105d457600080fd5b506105dd6115f3565b6040518080602001828103825283818151815260200191508051906020019080838360005b8381101561061d578082015181840152602081019050610602565b50505050905090810190601f16801561064a5780820380516001836020036101000a031916815260200191505b509250505060405180910390f35b34801561066457600080fd5b5061066d61173e565b6040518080602001828103825283818151815260200191508051906020019080838360005b838110156106ad578082015181840152602081019050610692565b50505050905090810190601f1680156106da5780820380516001836020036101000a031916815260200191505b509250505060405180910390f35b3480156106f457600080fd5b506106fd611889565b6040518080602001828103825283818151815260200191508051906020019080838360005b8381101561073d578082015181840152602081019050610722565b50505050905090810190601f16801561076a5780820380516001836020036101000a031916815260200191505b509250505060405180910390f35b34801561078457600080fd5b5061078d6119d4565b6040518080602001828103825283818151815260200191508051906020019080838360005b838110156107cd5780820151818401526020810190506107b2565b50505050905090810190601f1680156107fa5780820380516001836020036101000a031916815260200191505b509250505060405180910390f35b34801561081457600080fd5b5061081d611b1f565b6040518080602001828103825283818151815260200191508051906020019080838360005b8381101561085d578082015181840152602081019050610842565b50505050905090810190601f16801561088a5780820380516001836020036101000a031916815260200191505b509250505060405180910390f35b3480156108a457600080fd5b506108e7600480360360208110156108bb57600080fd5b81019080803573ffffffffffffffffffffffffffffffffffffffff169060200190929190505050611c6a565b604051808215151515815260200191505060405180910390f35b34801561090d57600080fd5b506109c76004803603602081101561092457600080fd5b810190808035906020019064010000000081111561094157600080fd5b82018360208201111561095357600080fd5b8035906020019184600183028401116401000000008311171561097557600080fd5b91908080601f016020809104026020016040519081016040528093929190818152602001838380828437600081840152601f19601f820116905080830192505050505050509192919290505050611f30565b005b3480156109d557600080fd5b50610a8f600480360360208110156109ec57600080fd5b8101908080359060200190640100000000811115610a0957600080fd5b820183602082011115610a1b57600080fd5b80359060200191846001830284011164010000000083111715610a3d57600080fd5b91908080601f016020809104026020016040519081016040528093929190818152602001838380828437600081840152601f19601f82011690508083019250505050505050919291929050505061200e565b005b348015610a9d57600080fd5b50610aca60048036036020811015610ab457600080fd5b81019080803590602001909291905050506120ec565b604051808273ffffffffffffffffffffffffffffffffffffffff1673ffffffffffffffffffffffffffffffffffffffff16815260200191505060405180910390f35b348015610b1857600080fd5b50610bd260048036036020811015610b2f57600080fd5b8101908080359060200190640100000000811115610b4c57600080fd5b820183602082011115610b5e57600080fd5b80359060200191846001830284011164010000000083111715610b8057600080fd5b91908080601f016020809104026020016040519081016040528093929190818152602001838380828437600081840152601f19601f82011690508083019250505050505050919291929050505061212a565b005b348015610be057600080fd5b50610be9612208565b604051808215151515815260200191505060405180910390f35b348015610c0f57600080fd5b50610c186122f8565b6040518080602001828103825283818151815260200191508051906020019080838360005b83811015610c58578082015181840152602081019050610c3d565b50505050905090810190601f168015610c855780820380516001836020036101000a031916815260200191505b509250505060405180910390f35b606060011515610ca1612208565b1515141515610d3e576040517f08c379a00000000000000000000000000000000000000000000000000000000081526004018080602001828103825260238152602001807f596f7520646f6e277420686176652061636365737320746f207468697320666981526020017f656c64000000000000000000000000000000000000000000000000000000000081525060400191505060405180910390fd5b600c8054600181600116156101000203166002900480601f016020809104026020016040519081016040528092919081815260200182805460018160011615610100020316600290048015610dd45780601f10610da957610100808354040283529160200191610dd4565b820191906000526020600020905b815481529060010190602001808311610db757829003601f168201915b5050505050905090565b6000809054906101000a900473ffffffffffffffffffffffffffffffffffffffff1673ffffffffffffffffffffffffffffffffffffffff163373ffffffffffffffffffffffffffffffffffffffff16141515610ea2576040517f08c379a00000000000000000000000000000000000000000000000000000000081526004018080602001828103825260208152602001807f4f6e6c79206f776e65722063616e206368616e67652074686973206669656c6481525060200191505060405180910390fd5b80600a9080519060200190610eb8929190612443565b5050565b606060011515610eca612208565b1515141515610f67576040517f08c379a00000000000000000000000000000000000000000000000000000000081526004018080602001828103825260238152602001807f596f7520646f6e277420686176652061636365737320746f207468697320666981526020017f656c64000000000000000000000000000000000000000000000000000000000081525060400191505060405180910390fd5b600b8054600181600116156101000203166002900480601f016020809104026020016040519081016040528092919081815260200182805460018160011615610100020316600290048015610ffd5780601f10610fd257610100808354040283529160200191610ffd565b820191906000526020600020905b815481529060010190602001808311610fe057829003601f168201915b5050505050905090565b606060011515611015612208565b15151415156110b2576040517f08c379a00000000000000000000000000000000000000000000000000000000081526004018080602001828103825260238152602001807f596f7520646f6e277420686176652061636365737320746f207468697320666981526020017f656c64000000000000000000000000000000000000000000000000000000000081525060400191505060405180910390fd5b60078054600181600116156101000203166002900480601f0160208091040260200160405190810160405280929190818152602001828054600181600116156101000203166002900480156111485780601f1061111d57610100808354040283529160200191611148565b820191906000526020600020905b81548152906001019060200180831161112b57829003601f168201915b5050505050905090565b606060011515611160612208565b15151415156111fd576040517f08c379a00000000000000000000000000000000000000000000000000000000081526004018080602001828103825260238152602001807f596f7520646f6e277420686176652061636365737320746f207468697320666981526020017f656c64000000000000000000000000000000000000000000000000000000000081525060400191505060405180910390fd5b60068054600181600116156101000203166002900480601f0160208091040260200160405190810160405280929190818152602001828054600181600116156101000203166002900480156112935780601f1061126857610100808354040283529160200191611293565b820191906000526020600020905b81548152906001019060200180831161127657829003601f168201915b5050505050905090565b6000809054906101000a900473ffffffffffffffffffffffffffffffffffffffff1673ffffffffffffffffffffffffffffffffffffffff163373ffffffffffffffffffffffffffffffffffffffff16141515611361576040517f08c379a00000000000000000000000000000000000000000000000000000000081526004018080602001828103825260208152602001807f4f6e6c79206f776e65722063616e206368616e67652074686973206669656c6481525060200191505060405180910390fd5b8060089080519060200190611377929190612443565b5050565b606060011515611389612208565b1515141515611426576040517f08c379a00000000000000000000000000000000000000000000000000000000081526004018080602001828103825260238152602001807f596f7520646f6e277420686176652061636365737320746f207468697320666981526020017f656c64000000000000000000000000000000000000000000000000000000000081525060400191505060405180910390fd5b60098054600181600116156101000203166002900480601f0160208091040260200160405190810160405280929190818152602001828054600181600116156101000203166002900480156114bc5780601f10611491576101008083540402835291602001916114bc565b820191906000526020600020905b81548152906001019060200180831161149f57829003601f168201915b5050505050905090565b6000809054906101000a900473ffffffffffffffffffffffffffffffffffffffff1673ffffffffffffffffffffffffffffffffffffffff163373ffffffffffffffffffffffffffffffffffffffff1614151561158a576040517f08c379a00000000000000000000000000000000000000000000000000000000081526004018080602001828103825260208152602001807f4f6e6c79206f776e65722063616e206368616e67652074686973206669656c6481525060200191505060405180910390fd5b60018190806001815401808255809150509060018203906000526020600020016000909192909190916101000a81548173ffffffffffffffffffffffffffffffffffffffff021916908373ffffffffffffffffffffffffffffffffffffffff1602179055505050565b606060011515611601612208565b151514151561169e576040517f08c379a00000000000000000000000000000000000000000000000000000000081526004018080602001828103825260238152602001807f596f7520646f6e277420686176652061636365737320746f207468697320666981526020017f656c64000000000000000000000000000000000000000000000000000000000081525060400191505060405180910390fd5b600a8054600181600116156101000203166002900480601f0160208091040260200160405190810160405280929190818152602001828054600181600116156101000203166002900480156117345780601f1061170957610100808354040283529160200191611734565b820191906000526020600020905b81548152906001019060200180831161171757829003601f168201915b5050505050905090565b60606001151561174c612208565b15151415156117e9576040517f08c379a00000000000000000000000000000000000000000000000000000000081526004018080602001828103825260238152602001807f596f7520646f6e277420686176652061636365737320746f207468697320666981526020017f656c64000000000000000000000000000000000000000000000000000000000081525060400191505060405180910390fd5b60048054600181600116156101000203166002900480601f01602080910402602001604051908101604052809291908181526020018280546001816001161561010002031660029004801561187f5780601f106118545761010080835404028352916020019161187f565b820191906000526020600020905b81548152906001019060200180831161186257829003601f168201915b5050505050905090565b606060011515611897612208565b1515141515611934576040517f08c379a00000000000000000000000000000000000000000000000000000000081526004018080602001828103825260238152602001807f596f7520646f6e277420686176652061636365737320746f207468697320666981526020017f656c64000000000000000000000000000000000000000000000000000000000081525060400191505060405180910390fd5b60038054600181600116156101000203166002900480601f0160208091040260200160405190810160405280929190818152602001828054600181600116156101000203166002900480156119ca5780601f1061199f576101008083540402835291602001916119ca565b820191906000526020600020905b8154815290600101906020018083116119ad57829003601f168201915b5050505050905090565b6060600115156119e2612208565b1515141515611a7f576040517f08c379a00000000000000000000000000000000000000000000000000000000081526004018080602001828103825260238152602001807f596f7520646f6e277420686176652061636365737320746f207468697320666981526020017f656c64000000000000000000000000000000000000000000000000000000000081525060400191505060405180910390fd5b60088054600181600116156101000203166002900480601f016020809104026020016040519081016040528092919081815260200182805460018160011615610100020316600290048015611b155780601f10611aea57610100808354040283529160200191611b15565b820191906000526020600020905b815481529060010190602001808311611af857829003601f168201915b5050505050905090565b606060011515611b2d612208565b1515141515611bca576040517f08c379a00000000000000000000000000000000000000000000000000000000081526004018080602001828103825260238152602001807f596f7520646f6e277420686176652061636365737320746f207468697320666981526020017f656c64000000000000000000000000000000000000000000000000000000000081525060400191505060405180910390fd5b60028054600181600116156101000203166002900480601f016020809104026020016040519081016040528092919081815260200182805460018160011615610100020316600290048015611c605780601f10611c3557610100808354040283529160200191611c60565b820191906000526020600020905b815481529060010190602001808311611c4357829003601f168201915b5050505050905090565b60008060009054906101000a900473ffffffffffffffffffffffffffffffffffffffff1673ffffffffffffffffffffffffffffffffffffffff163373ffffffffffffffffffffffffffffffffffffffff16141515611d30576040517f08c379a00000000000000000000000000000000000000000000000000000000081526004018080602001828103825260208152602001807f4f6e6c79206f776e65722063616e206368616e67652074686973206669656c6481525060200191505060405180910390fd5b600080905060008090505b600180549050811015611dc657600181815481101515611d5757fe5b9060005260206000200160009054906101000a900473ffffffffffffffffffffffffffffffffffffffff1673ffffffffffffffffffffffffffffffffffffffff168473ffffffffffffffffffffffffffffffffffffffff161415611db9578091505b8080600101915050611d3b565b50600081148015611e3d57508273ffffffffffffffffffffffffffffffffffffffff1660016000815481101515611df957fe5b9060005260206000200160009054906101000a900473ffffffffffffffffffffffffffffffffffffffff1673ffffffffffffffffffffffffffffffffffffffff1614155b15611e4c576000915050611f2b565b600180808054905003815481101515611e6157fe5b9060005260206000200160009054906101000a900473ffffffffffffffffffffffffffffffffffffffff16600182815481101515611e9b57fe5b9060005260206000200160006101000a81548173ffffffffffffffffffffffffffffffffffffffff021916908373ffffffffffffffffffffffffffffffffffffffff160217905550600180808054905003815481101515611ef857fe5b9060005260206000200160006101000a81549073ffffffffffffffffffffffffffffffffffffffff021916905560019150505b919050565b6000809054906101000a900473ffffffffffffffffffffffffffffffffffffffff1673ffffffffffffffffffffffffffffffffffffffff163373ffffffffffffffffffffffffffffffffffffffff16141515611ff4576040517f08c379a00000000000000000000000000000000000000000000000000000000081526004018080602001828103825260208152602001807f4f6e6c79206f776e65722063616e206368616e67652074686973206669656c6481525060200191505060405180910390fd5b806009908051906020019061200a929190612443565b5050565b6000809054906101000a900473ffffffffffffffffffffffffffffffffffffffff1673ffffffffffffffffffffffffffffffffffffffff163373ffffffffffffffffffffffffffffffffffffffff161415156120d2576040517f08c379a00000000000000000000000000000000000000000000000000000000081526004018080602001828103825260208152602001807f4f6e6c79206f776e65722063616e206368616e67652074686973206669656c6481525060200191505060405180910390fd5b80600b90805190602001906120e8929190612443565b5050565b6001818154811015156120fb57fe5b906000526020600020016000915054906101000a900473ffffffffffffffffffffffffffffffffffffffff1681565b6000809054906101000a900473ffffffffffffffffffffffffffffffffffffffff1673ffffffffffffffffffffffffffffffffffffffff163373ffffffffffffffffffffffffffffffffffffffff161415156121ee576040517f08c379a00000000000000000000000000000000000000000000000000000000081526004018080602001828103825260208152602001807f4f6e6c79206f776e65722063616e206368616e67652074686973206669656c6481525060200191505060405180910390fd5b80600c9080519060200190612204929190612443565b5050565b600080600090505b6001805490508110156122a1573373ffffffffffffffffffffffffffffffffffffffff1660018281548110151561224357fe5b9060005260206000200160009054906101000a900473ffffffffffffffffffffffffffffffffffffffff1673ffffffffffffffffffffffffffffffffffffffff1614156122945760019150506122f5565b8080600101915050612210565b506000809054906101000a900473ffffffffffffffffffffffffffffffffffffffff1673ffffffffffffffffffffffffffffffffffffffff163373ffffffffffffffffffffffffffffffffffffffff161490505b90565b606060011515612306612208565b15151415156123a3576040517f08c379a00000000000000000000000000000000000000000000000000000000081526004018080602001828103825260238152602001807f596f7520646f6e277420686176652061636365737320746f207468697320666981526020017f656c64000000000000000000000000000000000000000000000000000000000081525060400191505060405180910390fd5b60058054600181600116156101000203166002900480601f0160208091040260200160405190810160405280929190818152602001828054600181600116156101000203166002900480156124395780601f1061240e57610100808354040283529160200191612439565b820191906000526020600020905b81548152906001019060200180831161241c57829003601f168201915b5050505050905090565b828054600181600116156101000203166002900490600052602060002090601f016020900481019282601f1061248457805160ff19168380011785556124b2565b828001600101855582156124b2579182015b828111156124b1578251825591602001919060010190612496565b5b5090506124bf91906124c3565b5090565b6124e591905b808211156124e15760008160009055506001016124c9565b5090565b9056fea165627a7a723058200873fe3adfd6301d99f96fe224d3f8a9590b33174b2f97370ad6513a4dfd1f050029",
  "source": "pragma solidity >=0.4.22 <0.6.0;\r\ncontract Person {\r\n    \r\n    //owner address\r\n    address private owner;\r\n    \r\n    //doctors list who can access my data\r\n    address[] public doctorsAccess;\r\n\r\n    //identity\r\n    string private firstName;\r\n    string private lastName;\r\n    string private SID; \r\n    \r\n    //birthday\r\n    string private year;\r\n    string private month;\r\n    string private day;\r\n    \r\n    //contract\r\n    string private email;\r\n    string private telephone;\r\n    string private personAddress;\r\n    string private zip;\r\n    string private city;\r\n    \r\n    //HL7 v2 format data\r\n    string[] private medicalData;\r\n    \r\n    constructor(string memory _firstName, string memory _lastName, string memory _SID,\r\n                string memory _year, string memory _month, string memory _day, string memory _email,\r\n                string memory _telephone, string memory _personAddress, string memory _zip, string memory _city)\r\n    public {\r\n        owner = msg.sender;\r\n        firstName = _firstName;\r\n        lastName = _lastName;\r\n        SID = _SID;\r\n        year = _year;\r\n        month = _month;\r\n        day = _day;\r\n        email = _email;\r\n        telephone = _telephone;\r\n        personAddress = _personAddress;\r\n        zip = _zip;\r\n        city = _city;\r\n    }\r\n\r\n    modifier checkAccess(){\r\n        require(getAccess() == true, \"You don't have access to this field\");\r\n        _;\r\n    }\r\n\r\n    function getAccess() public view returns(bool access){\r\n        //here will be more validation, but for now I just added this one\r\n        for(uint i = 0; i < doctorsAccess.length; i++){\r\n            if(doctorsAccess[i] == msg.sender){\r\n                return(true);\r\n            }\r\n        }\r\n        return (msg.sender == owner);\r\n    }\r\n    \r\n    function addDoctor(address _doctorsAddress) public{\r\n        require(msg.sender == owner, \"Only owner can change this field\");\r\n        doctorsAccess.push(_doctorsAddress);\r\n    }\r\n    \r\n    function removeDoctor(address _doctorsAddress) public returns(bool succesful){\r\n        require(msg.sender == owner, \"Only owner can change this field\");\r\n        //find position\r\n        uint pos = 0;\r\n        for(uint i = 0; i < doctorsAccess.length; i++){\r\n            if(_doctorsAddress == doctorsAccess[i]){\r\n                pos = i;\r\n            }\r\n        }\r\n        \r\n        if(pos == 0 && doctorsAccess[0] != _doctorsAddress){\r\n            return false;\r\n        }\r\n        \r\n        doctorsAccess[pos] = doctorsAccess[doctorsAccess.length - 1];\r\n        delete doctorsAccess[doctorsAccess.length - 1];\r\n        \r\n        return true;\r\n    }\r\n    \r\n    //getters part\r\n    function getFirstName() public view checkAccess returns (string memory _firstName){\r\n        return(firstName);\r\n    }\r\n    function getLastName() public view checkAccess returns (string memory _lastName){\r\n        return(lastName);\r\n    }\r\n    function getSID() public view checkAccess returns (string memory _SID){\r\n        return(SID);\r\n    }\r\n    function getYear() public view checkAccess returns (string memory _year){\r\n        return(year);\r\n    }\r\n    function getMonth() public view checkAccess returns (string memory _month){\r\n        return(month);\r\n    }\r\n    function getDay() public view checkAccess returns (string memory _day){\r\n        return(day);\r\n    }\r\n    function getEmail() public view checkAccess returns (string memory _email){\r\n        return(email);\r\n    }\r\n    function getTelephone() public view checkAccess returns (string memory _telephone){\r\n        return(telephone);\r\n    }\r\n    function getPersonAddress() public checkAccess view returns (string memory _personAddress){\r\n        return(personAddress);\r\n    }\r\n    function getZip() public view checkAccess returns (string memory _zip){\r\n        return(zip);\r\n    }\r\n    function getCity() public view checkAccess returns (string memory _city){\r\n        return(city);\r\n    }\r\n    \r\n    //setters part\r\n    function setEmail(string memory _email) public{\r\n        require(msg.sender == owner, \"Only owner can change this field\");\r\n        email = _email;\r\n    }\r\n    function setTelephone(string memory _telephone) public{\r\n        require(msg.sender == owner, \"Only owner can change this field\");\r\n        telephone = _telephone;\r\n    }\r\n    function setAddress(string memory _personAddress) public{\r\n        require(msg.sender == owner, \"Only owner can change this field\");\r\n        personAddress = _personAddress;\r\n    }\r\n    function setCity(string memory _city) public{\r\n        require(msg.sender == owner, \"Only owner can change this field\");\r\n        city = _city;\r\n    }\r\n    function setZip(string memory _zip) public{\r\n        require(msg.sender == owner, \"Only owner can change this field\");\r\n        zip = _zip;\r\n    }\r\n    \r\n    \r\n}",
  "sourcePath": "C:/Users/Emy/Desktop/Proiect Licenta/EHR-dApp/contracts/Person.sol",
  "compiler": {
    "name": "solc",
    "version": "0.5.0+commit.1d4f565a.Emscripten.clang"
  },
  "schemaVersion": "3.0.1",
  "updatedAt": "2019-03-02T14:22:50.698Z",
  "devdoc": {
    "methods": {}
  },
  "userdoc": {
    "methods": {}
  }
}